:100000000C9450090C9462090C9462090C946209D6
:100010000C9462090C9462090C9462090C943914D2
:100020000C9462090C9462090C9462090C944F328E
:100030000C9462090C9462090C94392F0C94620997
:100040000C9438320C9462090C9462090C94620985
:100050000C9462090C9462090C9462090C94620974
:100060000C9462090C94620989138C138F139113F9
:1000700095139813B013B313B613B913C413C41361
:10008000BC13BF13C213050A0605060A050A0609B2
:10009000060A050A0609060A050A0609060A050AE5
:1000A0000609060A050A06050A06090A06090A06D5
:1000B000000010000000100000E01300001C1C00F5
:1000C000000370008000900040001001200C080226
:1000D000100C0404100C0204080C0108088C000821
:1000E000084C0008042C0010041C0010FF0F001026
:1000F000041C0010042C0010084C0008088C040894
:10010000080C0708100C0704108C0704200C0802C8
:10011000400010018000900000037000001C1C00D3
:1001200000E01300000010000000100000000000BC
:10013000000010000000100000E01300001C1C0074
:1001400000037000800090004000100120000802B1
:10015000108C0404108C0304088C0308088C070816
:10016000084C0008042C0010041C0010FF0F0010A5
:10017000041C0010042C0010084C0008088C000817
:10018000080C0108100C0204100C040420000802E2
:10019000400010018000900000037000001C1C0053
:1001A00000E013000000100000001000000000003C
:1001B000000010000000100000E01300001C1C00F4
:1001C0000003700080009000401010012010100209
:1001D00010F41F0410140004081400080804000898
:1001E00008040008041402100414031004F41F107F
:1001F0000414131004141210080410080804100842
:100200000814100810141004FFF71F042010100227
:10021000401010018000900000037000001C1C00C2
:1002200000E01300000010000000100000000000BB
:10023000000010000000100000E01300001C1C0073
:100240000003700080009000401010012010100288
:10025000FFF71F04101410040814100808041008F5
:1002600008041008041411100414131004F41F10CF
:100270000414031004140110080400080804000802
:10028000081400081014000410F41F0420101002B9
:10029000401010018000900000037000001C1C0042
:1002A00000E013000000100000001000000000003B
:1002B000000010000000100000E01300001C1C00F3
:1002C0000003700080009000401010012010100208
:1002D00010F41F0410140004081400080814000887
:1002E00008140008041402100414031004F41F106E
:1002F0000414131004141210081410080814100821
:100300000814100810141004FFF71F042010100226
:10031000401010018000900000037000001C1C00C1
:1003200000E01300000010000000100000000000BA
:10033000000010000000100000E01300001C1C0072
:100340000003700080009000401010012010100287
:10035000FFF71F04101410040814100808141008E4
:1003600008141008041411100414131004F41F10BE
:1003700004140310041401100814000808140008E1
:10038000081400081014000410F41F0420101002B8
:10039000401010018000900000037000001C1C0041
:1003A00000E013000000100000001000000000003A
:1003B000000010000000100000E01300001C1C00F2
:1003C0000003700080009000400010012010100217
:1003D0001010100410F01F04081000080810000886
:1003E0000810000804100010041000100410001081
:1003F0000410001004100010081000080812000873
:1004000008160008FFFF1F04101610042012100227
:10041000400010018000900000037000001C1C00D0
:1004200000E01300000010000000100000000000B9
:10043000000010000000100000E01300001C1C0071
:100440000003700080009000400010012012100294
:1004500010131004FFFF1F040813000808120008FF
:100460000810000804100010041000100410001000
:1004700004100010041000100810000808100008F4
:100480000810000810F01F041010100420101002B3
:10049000400010018000900000037000001C1C0050
:1004A00000E0130000001000000010000000000039
:1004B000000010000000100000E01300001C1C00F1
:1004C0000003700080009000400010012008080226
:1004D000100A0404100A0204080A0108088A000825
:1004E000084A0008042A0010041A0010FF0B00102C
:1004F000041A0010042A0010084A0008088A040898
:10050000080A0708100A0704108A070420080802CE
:10051000400010018000900000037000001C1C00CF
:1005200000E01300000010000000100000000000B8
:10053000000010000000100000E01300001C1C0070
:1005400000037000800090004000100120000802AD
:1005500010880404108A0304088A0308088A07081C
:10056000084A0008042A0010041A0010FF0B0010AB
:10057000041A0010042A0010084A0008088A00081B
:10058000080A0108100A02041008040420000802E6
:10059000400010018000900000037000001C1C004F
:1005A00000E0130000001000000010000000000038
:1005B00000000000008000000080000000800000BB
:1005C000008000000080000000800000008000002B
:1005D00000800000C0FFFF0180FFFF0000FF7F00E0
:1005E00000FE3F0000FC1F0000F80F0000F00700B5
:1005F00000E0030000C0010000800000C0FFFF0118
:1006000000C0000000A00000009000000088000072
:100610000084000000820000FF81000000800000D4
:10062000008000000080000000800000000000004A
:10063000000000000080000000800000008000003A
:1006400000800000008000000080000000800000AA
:100650000080000000800000E0FFFF030004FF01B5
:10066000000EFF01000EFE00001FFE00001F7C00B8
:10067000803F7C00803F3800C07F3800C07F100082
:10068000E0FFFF0300840000008200000081000002
:10069000808000007F80000000800000008000005B
:1006A00000800000008000000080000000000000CA
:1006B00000000000008000000080000000800000BA
:1006C00000800000FF810000008200000084000024
:1006D000008800000090000000A0000000C00000A2
:1006E000C0FFFF0180FFFF0000FF7F0000FE3F0012
:1006F00000FC1F0000F80F0000F0070000E00300FE
:1007000000C0010000800000C0FFFF010080000069
:1007100000800000008000000080000000800000D9
:100720000080000000800000008000000000000049
:10073000000010000000100000E01300001C1C006E
:100740000003700080009000400010012010100293
:100750003F10100450F01F0488120008081300080E
:10076000881300080414001004180010041000106E
:1007700004100010041000100810000808100008F1
:100780000810000810F01F041010100420101002B0
:10079000400010018000900000037000001C1C004D
:1007A00000E0130000001000000010000000000036
:1007B000FF01020304050607FFFFFFFFFFFFFFFF26
:1007C000FFFFFFFFFFFFFFFFFFFFFFFFFFFFFFFF39
:1007D000101112131415161718191A1B1C1D1E1FA1
:1007E000202122232425262728292A2B2C2D2E2F91
:1007F000303132333435363738393A3B3C3D3E3F81
:10080000404142434445464748494A4B4C4D4E4F70
:10081000505152535455565758595A5B5C5D5E5F60
:10082000606162636465666768696A6B6C6D6EFFC0
:10083000FFFFFFFFFFFFFFFFFFFFFFFFFFFFFFFFC8
:10084000FFFFFFFFFFFFFFFFFFFFFFFFFFFFFFFFB8
:10085000FFFFFFFFFFFFFFFF72FFFFFFFFFFFFFF35
:10086000FFFFFFFFFF05FFFF85FFFFFFFFFFFFFF0C
:10087000317032710835737475763B773D383F7847
:10088000403344797A48097B7C9D7D7E0A7F808154
:10089000518283840C55868788898A8B8C8D5F8EE4
:1008A00060538F699C680D90919E92930E959697D8
:1008B0000000000000000000000000000000000038
:1008C00000000042464E5EFF5E4E464200000000C1
:1008D0000000004262727AFF7A72624200000000F9
:1008E00000000066666666E76666666600000000F1
:1008F0000000001C224141414136145577000000A0
:100900000000000202622222222222366A02010034
:1009100000000000FE0202030202FE0000000000D0
:10092000000000007F4040C040407F000000000009
:100930000070282424242424242424227F414100DC
:100940000077222222222222222222227F402000FD
:10095000000E04344C444444444444241F0000002A
:10096000007C22212121223C282422227300000025
:100970000000007028242424242424227F414100E4
:100980000000007722222222222222227F40200001
:100990000000000702021A26424242221F00000005
:1009A0000000000000000000000000000000000047
:1009B0000000000000000000000000000000000037
:1009C00000080808080808080808080008080000C7
:1009D00000666644220000000000000000000000E5
:1009E00000000024247E2424247E2424000000000F
:1009F00000081C2A490A0C1829492A1C0800000072
:100A00000000060949261008043249483000000059
:100A1000001C2221110E046E512141823C00000075
:100A2000001818100800000000000000000000007E
:100A3000002010080404040404040810200000002E
:100A400000040810202020202020100804000000AE
:100A500000000008492A1C7F1C2A490800000000E9
:100A6000000000000808087F0808080000000000D7
:100A7000000000000000000000000018181008002E
:100A8000000000000000007F0000000000000000E7
:100A90000000000000000000000000181800000026
:100AA00000000000402010080402010000000000C7
:100AB000001C224141414141414141221C000000B2
:100AC00000180C0A08080808080808083E0000007A
:100AD000001C224141402010080442417F000000D8
:100AE000007F412110081C20404141221C000000D1
:100AF0000004242424242221217F202070000000CF
:100B0000007F41011D234140404041221C00000064
:100B1000001C220119254341414141221C000000D3
:100B2000007F41416030180C0404040404000000FC
:100B3000001C224141221C22414141221C00000094
:100B4000001C224141414161524C40221C000000E6
:100B50000000000018180000000018180000000035
:100B6000000000001818000000001818100800000D
:100B7000000040201008040204081020400000007B
:100B80000000000000007E00007E00000000000069
:100B90000000020408102040201008040200000099
:100BA000001C2241414040201008080008080000B5
:100BB00000001C22414D515D552D01621C000000BA
:100BC0000070282422222222223E222277000000C6
:100BD000001F224242221E22424242221F000000E7
:100BE000005C624141010101014141221C00000001
:100BF000001F224242424242424242221F00000063
:100C0000007F424212121E12120242427F00000076
:100C1000007F424212121E12120202020F00000056
:100C2000005C624141010179494161524C00000080
:100C30000077222222223E22222222227700000056
:100C4000003E080808080808080808083E000000D8
:100C5000007C101010101010101011110E00000068
:100C6000006722120A0A06060A0A1222670000001A
:100C70000007020202020202024242427F0000001A
:100C80000077222236362A2A2A22222277000000E2
:100C900000772226262A2A2A3232222277000000D2
:100CA000001C224141414141414141221C000000C0
:100CB000001F2242424242221E020202070000009E
:100CC000001C22414141414141512142BC000000F0
:100CD000001F22424242221E0A1222226700000006
:100CE000005C624141021C20404141221C00000086
:100CF000007F494908080808080808083E00000065
:100D00000077222222222222222222221C000000FC
:100D100000772222222222222236141C0800000000
:100D2000007722222A2A2A2A2A2A3E1C140000009E
:100D30000077222236141C1436222222770000006B
:100D400000772222222222361C0808081C000000FC
:100D5000007F414120100804024141417F00000012
:100D6000003E02020202020202020202023E0000F1
:100D700000000001020408102040000000000000F4
:100D8000003E20202020202020202020203E000087
:100D900000081422410000000000000000000000D4
:100DA000000000000000000000000000007F0000C4
:100DB00000181808100000000000000000000000EB
:100DC0000000001C22405C62414161524C00000066
:100DD0000007021A26424242424242261B000000FD
:100DE0000000005C62410101014141221C00000041
:100DF0000070202C32212121212121326C000000A1
:100E00000000001C2241417F010141221C00000022
:100E10000018244202020F02020202020F00000028
:100E20000000006C322121212121322C20221C00C3
:100E3000000302122A262222222222227700000008
:100E40000C0C000E08080808080808083E000000FE
:100E50003030003C202020202020202022221C0096
:100E60000003026252120A06060A126247000000DC
:100E7000001C101010101010101010107C0000003A
:100E8000000000172A2A2A2A2A2A2A2A6B00000090
:100E90000000001B262222222222222277000000AC
:100EA0000000001C22414141414141221C00000040
:100EB0000000001B26424242424242261A0207001C
:100EC0000000006C32212121212121322C207000D0
:100ED000000000334A4642020202020207000000FC
:100EE0000000005C6241021C204141221C00000005
:100EF00000040404041F04040404444438000000F3
:100F00000000007722222222222222326C000000DE
:100F100000000077222222222236141C0800000042
:100F20000000007722222A2A2A2A2A3E14000000E2
:100F3000000000632236141C3622222263000000C7
:100F400000000077222222222222322C20221C00A2
:100F50000000007F41211008044241417F00000051
:100F600000300804040402010204040408300000F4
:100F70000008080808080808080808080808000009
:100F80000006081010102040201010100806000065
:100F900000000000040C1C3E1C0C040000000000BB
:100FA0000000000010181C3E1C181000000000007B
:100FB000003F222202021E22424242221F00000063
:100FC000007F424202020202020202020700000007
:100FD0003333003F222A0A0E0A0A42427F000000F1
:100FE000006B2A2A2A2A1C3E2A2A2A2A6B00000081
:100FF000001D234141201820404141221C000000D7
:1010000000632232322A2A2A262622227700000072
:101010001408632232322A2A2A2626227700000068
:101020000070282422222222222222227300000081
:10103000007F222222222222222222227700000066
:101040000077222222222222322C20221C000000A1
:10105000001C083E49494949493E08081C00000057
:101060000077222222222222322C2020700000002F
:10107000007722222A2A2A2A2A2A2A2A7F000000E6
:10108000000F05354C444444444444241F000000F0
:101090000047424A56525252525252524F0000009A
:1010A000001D234148487848484141221C00000067
:1010B00000334A4A4A4A4E4A4A4A4A4A33000000E2
:1010C000007C22212121223C2824222273000000BE
:1010D00000300C02011D2341414141221C0000004F
:1010E0000000001F2242221E224242221F00000056
:1010F0000000003F2222020202020202070000005A
:101100003636001C2241417F010141221C000000B3
:101110000000006B2A2A2A1C3E2A2A2A6B000000A3
:101120000000001D23412018204141221C00000026
:10113000000000772232322A2A2626227700000079
:10114000221408632232322A2A262622770000003F
:101150000000006352120A060A12222263000000F5
:101160000000007824222222222222227300000082
:10117000000000772236363E2A2A2222770000001D
:10118000000000772222223E222222227700000045
:101190000000007F22222222222222227700000049
:1011A0000000007F49490808080808081C000000E2
:1011B0000000007722222222322C20207000000022
:1011C0000000007722222A2A2A2A2A2A7F000000E9
:1011D0000000000F0505344C444444241F00000067
:1011E0000000004742424A56525252524F000000FD
:1011F0000000000702021A26424242221F0000009D
:101200000000001D23414878484141221C00000095
:10121000000000334A4A4A4E4A4A4A4A3300000014
:101220000000007C22212121223C282472000000A1
:101230000070282424242424242424227F414100D3
:101240000077222222222222222222227F402000F4
:10125000007722222A2A2A2A2A2A2A2A7F402000A4
:101260000000007028242424242424227F414100EB
:101270000000001C081C2A494949492A1C081C0076
:10128000007722222A2A2A2A2A2A2A2A7F40200074
:101290000000007722222A2A2A2A2A2A7F402000B8
:1012A00011241FBECFEFD8E0DEBFCDBF21E0A0E00C
:1012B000B1E001C01D92A13FB207E1F70E94453C99
:1012C0000C94DF3F0C940000A6E0B0E0EAE6F9E001
:1012D0000C94383F9091A1019C839091A2019D8331
:1012E0009091A3019E8389836A834B8380E00E944F
:1012F000573981E00E94573982E00E9457398DE3C7
:101300000E94E03A10E05E0184E0A80EB11C03E008
:101310000A0DCE0101966C017501F70181917F01E3
:10132000181304C0F60180810E94E03AFFEFCF1A43
:10133000DF0A0E11F2CF1F5F133059F72696EAE04D
:101340000C94543FA3E0B0E0E8EAF9E00C943C3F91
:1013500089836A834B83CE0101967C0110E0F701FB
:1013600001917F01002359F0812F0E9457398AE3B0
:101370000E94E03A802F0E94E03A0E9463391F5F8A
:10138000133069F72396E6E00C94583F88E293E027
:101390000E94483980E293E00E946F398091B60143
:1013A0008F5F8093B6011092A00108958091030190
:1013B0008130C9F48EEA92E00E9448390E942639B1
:1013C000809108010E9457398AE30E94E03A0E9406
:1013D00063396091090170910A0180E090E026E58F
:1013E0004DEF0E94F80F0895A1E0B0E0EAEFF9E0B8
:1013F0000C94403F69830E94E03A85EE90E00E94A1
:1014000048396981862F0E94E03A0E946339EDE0F5
:10141000F1E0638174818581968124E042810E949C
:10142000F80F2196E2E00C945C3FA0E0B0E0EBE125
:10143000FAE00C943A3F80910601813039F4F09043
:101440000D0100E010E0CDE0D1E05CC0833009F098
:101450004DC00091100110911101209112013091A5
:1014600013016091170170911801809119019091F9
:101470001A01E0900F01409116010E941D0F81306A
:1014800029F424E1C22E21E0D22E04C09DE0C92E11
:1014900091E0D92EF6010381148125813681609176
:1014A0001E0170911F018091200190912101E28025
:1014B00040911D010E941D0F813031F0FDE0CF16DB
:1014C000F1E0DF0629F407C08BE1C82E81E0D82EB9
:1014D000CDE0D1E002C0C4E1D1E08E01095F1F4F31
:1014E0000C151D0539F4095F1F4F04C004E111E01C
:1014F000CDE0D1E08881F801F0808F1519F0F180FE
:101500008F11F98088818F1101C089810E9457391C
:1015100085EE90E00E9448398F2D0E9457390115C1
:10152000110561F085EE90E00E944839F801808154
:101530008F1102C0F80181810E9457390E9426391B
:101540006B817C818D819E8124E04A810E94F80F0D
:101550000115110551F00E946339F801638174810E
:101560008581968124E0428112C0CE010E94802BA9
:10157000813079F40E9463396091D5017091D60170
:101580008091D7019091D80128E44091D4010E9424
:10159000F80FCDB7DEB7E8E00C94563FEF920F930B
:1015A0001F93CF93DF93009148011091490120913F
:1015B0004A0130914B01609157017091580180911F
:1015C000590190915A01E0904701409156010E94C3
:1015D0001D0F813019F4C4E5D1E002C0C5E4D1E0AB
:1015E0000B811C812D813E816091660170916701A4
:1015F0008091680190916901EA80409165010E94A3
:101600001D0F813011F4C3E6D1E088810E94573963
:1016100082EF90E00E94483989810E9457390E94E8
:1016200026396B817C818D819E8126E44A810E94CE
:10163000F80FCE010E94CE1E8C010F3F8FEF1807CE
:1016400049F00E946339B80180E090E024E04EEF59
:101650000E94F80F8B859C85AD85BE85892B8A2BD2
:101660008B2B61F080E591E00E9481396B857C8550
:101670008D859E8521E448EF0E94F80FDF91CF9180
:101680001F910F91EF900895EF920F931F93CF93B7
:10169000DF93EC016091AC017091AD018091AE01DE
:1016A0009091AF0127EFE22E02E310E020E030E05E
:1016B0004091B0010E941D0F87FD10C0CE010E9415
:1016C00081396091AC017091AD018091AE01909132
:1016D000AF0121E44091B0010E94F80FDF91CF915A
:1016E0001F910F91EF900895009799F0FC0140E051
:1016F000608181810E948F2260914801709149012F
:1017000080914A0190914B0126E4409147010E944B
:10171000F80F0895A0E0B0E0E0E9FBE00C94393F59
:1017200080910701813051F4E0907301E5E0DE2EF5
:10173000F5E0FF2E85E000E010E03AC18230F1F4E0
:10174000F0907201D0907801C0907301E09079011F
:10175000FD1006C0DE2C75E0E72EBB24B39463C0F9
:10176000CE1409F422C1FE101AC1CD1018C1EF2CFD
:1017700035E0D32E45E0C42EB12C55C0833009F09E
:1017800046C080E066E0282F30E090E0629FF001E4
:10179000639FF00D1124ED58FE4F492F50E089173B
:1017A00069F0649FD001659FB00D1124AE58BE4F03
:1017B000C0817C91C71302C095E085E09F5F9330A4
:1017C00060F38F5F8330F8F296E0929FE001939F81
:1017D000D00D1124CE58DE4F853040F0949F80010B
:1017E000959F100D11240E581E4F02C000E010E00E
:1017F00086E0829FF001839FF00D1124EE58FE4F8A
:10180000E18055E0D52E65E0F62E83E0D3C08EEE64
:1018100090E00E9448390E94633980910701805D01
:101820000E94E03ADFC082E08F1598F0809173014A
:101830000E9457398AEE90E00E9448398F2D0E940D
:10184000573988E791E00097D1F48C01C2E7D1E0E5
:10185000B6C008E711E0C2E7D1E088810E9457399D
:101860008EEE90E00E9448398E2D0E945739011566
:10187000110509F4A4C0E3E0EF1570F004C008E717
:1018800011E0C2E7D1E08EEE90E00E944839FE14EC
:1018900039F0F801818106C08AEE90E00E94483953
:1018A000F80180810E945739F4E0FC1508F450C01B
:1018B00049E16D2D8C2D0E948B1E8130C1F40E9458
:1018C000633982E08F1518F089EB91E002C08DEB4F
:1018D00091E00E9448398FE30E94E03A0E94263945
:1018E00061E36D0D81E38C0D0E94F409B12C84EA53
:1018F00091E00E9481396A817B8180E090E026E559
:101900004DEF0E94F80F0E9463390115110571F522
:101910008C819D818A3F910570F488E20E94E03AB3
:101920006C817D8180E090E020E040E00E94F80F33
:1019300089E20E94E03A40E0688189810E94F318C0
:1019400081E00E944F238AE991E00E94440B17C076
:1019500084EA91E00E9481396A817B8180E090E095
:1019600026E54DEF0E94F80F0E946339F80162816D
:10197000738180E090E026E54DEF0E94F80FF1E0E2
:10198000BF1230C082EA91E00E948139CE010E94EC
:10199000740B0E946339C8010E94740B23C085E058
:1019A000D82E95E0F92E25E0E22E85E008E711E03B
:1019B000C2E7D1E0CF2CF82EBB24B3944ECF84E005
:1019C0008C1508F075CF84EA91E00E9481396A8114
:1019D0007B8180E090E026E54DEF0E94F80F0E94A9
:1019E000633996CFCDB7DEB7E9E00C94553FA0E060
:1019F000B0E0EDEFFCE00C943A3F80910301909150
:101A0000A101C091A301D091A20180FF09C0192FAB
:101A1000FD2EDC2F02E09DEBC92E91E0D92E08C0EF
:101A20001C2FC92FF12E01E089EBC82E81E0D82EA2
:101A300088E892E00E946739C6010E944839809187
:101A4000030182FF03C08BE20E94E03A0E94263924
:101A500045E463E482E40E9464096F2D8D2F0E94A7
:101A6000B223892B59F00E94633983E40E94E03A43
:101A7000802F0E94E03A85E40E94E03A49E1612F1C
:101A80008C2F0E948B1E813049F40E94263965E418
:101A900082E40E94F4090E94C93B49C00E94C93BEC
:101AA00085EB91E00E9481396091A8017091A901B4
:101AB0008091AA019091AB0120E040E00E94F80FD4
:101AC0006C2F812F0E94B223EC01892B81F181EBD5
:101AD00091E00E9481392A813B81EC81FD81C09097
:101AE000A801D090A901E090AA01F090AB0184E692
:101AF000C816D104E104F10498F0C9018E1B9F0BB4
:101B000063E070E00E94B43E8AEFC816D104E1049D
:101B1000F10418F4261B370B03C09B012E0F3F1F47
:101B2000B90180E090E026E54DEF0E94F80F87EACA
:101B300091E00E94440BCDB7DEB7E8E00C94563F2D
:101B4000FF920F931F93CF93DF93809103019091A6
:101B5000A3016091A20180FF03C0892F02E003C0AE
:101B6000862F692F01E0909102019F3121F015E449
:101B700023E4F22E03C013E594E4F92E0E94B2236D
:101B8000EC01892B59F00E9463398F2D0E94E03AB5
:101B9000802F0E94E03A812F0E94E03A8091030159
:101BA00083FD49C08091A6019091A701892B81F006
:101BB0008EE991E00E9481396091A6017091A701A0
:101BC000072E000C880B990B26E54DEF0E94801024
:101BD00081EC91E00E9481396091B1017091B20174
:101BE0008091B3019091B40126E44091B5010E9427
:101BF000F80F8091A4019091A501892B71F08CE4DC
:101C000091E00E9481396091A4017091A50180E06A
:101C100090E024E04EEF0E94F80F209761F084EAF4
:101C200091E00E9481396A817B8180E090E026E525
:101C30004DEF0E94F80FCDB7DEB7E5E00C94593FA9
:101C40000E9463398091030180FF02C08EE401C0CD
:101C500080E50E94E03A84ED91E00E9448390895C1
:101C60000E9463398091030182FF03C08FEC91E0F1
:101C700002C08AEC91E00E944839089580910301E6
:101C800084FF05C08CED91E00E94483903C08AE4CE
:101C90000E94E03A88ED91E00E9448390E94200EAF
:101CA0008091030184FD0E94300E0E9426398091AC
:101CB000030186FF03C048E768E702C043E564E428
:101CC00087E40E9464090E94C93B8091030184FD5E
:101CD0000E94A00D8091030183FF04C084E591E080
:101CE0000E94440B089585EC91E00E9448390E94BF
:101CF000200E0E94300E0E94263945E463E487E4FA
:101D00000E9464090E94C93B0E94A00D0895809121
:101D10000201823249F48FE792E00E9448390E9422
:101D2000263943E461E408C086E792E00E9448391E
:101D30000E94263941E362E387E40E9464090E941D
:101D4000C93B8091A4019091A501892B71F08CEA87
:101D500091E00E9481396091A4017091A50180E019
:101D600090E026E54DEF0E94F80F0895CF93DF93A2
:101D70008AE692E00E9448390E94263943E461E4F1
:101D800087E40E9464090E94C93B87E991E00E94B0
:101D90008139C2E3D1E06D817E8180E090E026E56B
:101DA0004DEF0E94F80F84EA91E00E9481396B8127
:101DB0007C8180E090E026E54DEF0E94F80FDF91F6
:101DC000CF91089589E092E00E9448390E94263917
:101DD00041E362E385E40E9464090E94C93B86EF07
:101DE00090E00E948139EDE0F1E0638174818581AA
:101DF000968124E042810E94F80F0895CF92DF92ED
:101E0000EF92FF92CF93C1E02AE0C22ED12CE12CB9
:101E1000F12C6A3071058105910540F0A70196010A
:101E20000E94C83ECA01B901CF5FF3CF8C2FCF917A
:101E3000FF90EF90DF90CF9008954F925F926F9256
:101E40007F928F929F92AF92BF92EF920F931F93C8
:101E5000CF93DF931F92CDB7DEB74B015C01280112
:101E6000390149830E94FE0E182FC301B2010E945E
:101E7000FE0E498181149104A104B10451F1411471
:101E800051046104710401F1410FE80EE41654F1AC
:101E90004E112AC0F12FE82FE11754F4AAE0B0E068
:101EA000A30192010E94253F2B013C01EF5FF4CF7B
:101EB000FE1754F4AAE0B0E0A50194010E94253F6A
:101EC0004B015C01FF5FF4CF481459046A047B04A2
:101ED00048F081E084149504A604B70408F080E07B
:101EE000819503C081E001C08FEF0F90DF91CF910A
:101EF0001F910F91EF90BF90AF909F908F907F9028
:101F00006F905F904F900895CF92DF92EF92FF9283
:101F1000CF93DF93C42FD22F2AE0C22ED12CE12CF5
:101F2000F12CCD1791F0CD1744F4A70196010E9432
:101F3000C83ECA01B901CF5FF4CFAAE0B0E09B016F
:101F4000AC010E94253FC150ECCFDF91CF91FF90B3
:101F5000EF90DF90CF900895A0E0B0E0E2EBFFE0DB
:101F60000C943A3FD42FF22E2AE049E351E00E942C
:101F7000673FE9E3F1E001900020E9F73197BF0105
:101F800069537140E62EDD2369F06D1728F0C62FE6
:101F9000CD1BD0E041F401C0D61B80E30E94E03AA3
:101FA000C0E001C0C4E689E3C82E81E0D82E8601D6
:101FB000802F8C198E1590F48C130AC08EE20E942B
:101FC000E03ADD2329F080E30E94E03AD150F9CFD6
:101FD000F80181918F010E94E03AEACFFF2019F0C9
:101FE0008F2D0E94E03ACDB7DEB7E8E00C94563F63
:101FF000A0E0B0E0EEEFFFE00C94363F6B017C0117
:10200000C42F122F9AE0892E912CA12CB12C80E1A3
:10201000C81687E2D806E104F10470F0C701B601E2
:102020006B5F7F4F8F4F9F4FA50194010E94C83E69
:1020300069017A01CF5FEBCFC43FACF08CE08C0F2D
:1020400023E0622F0E94923ED92F992319F08F5FCF
:10205000291BD22F873040F490E089529F4F0E9475
:10206000B33F082F02C0D0E000E04AE069E371E02E
:10207000C6010E94893FE9E3F1E001900020E9F701
:102080003197E953F140BE2ECE2FCD1B1C165CF0CC
:1020900080E30E94E03A8EE20E94E03ACC2319F0FD
:1020A00080E30E94E03AD11101C0CFEFC15089E333
:1020B000C82E81E0D82EE12CF12C0C2E000CDD0B6B
:1020C000EB1478F4F60181916F010E94E03AEC166E
:1020D000FD0619F48EE20E94E03AFFEFEF1AFF0AC4
:1020E000EFCF002319F0802F0E94E03A112319F05E
:1020F000812F0E94E03ACDB7DEB7ECE00C94523F5E
:10210000CF92DF92EF92FF92CF93DF9300D0CDB7C3
:10211000DEB76B017C0197FF0FC08DE22A834983F4
:102120000E94E03AF094E094D094C094C11CD11C79
:10213000E11CF11C49812A81C701B6010E94F80FF8
:102140000F900F90DF91CF91FF90EF90DF90CF90A5
:102150000895CF93CAB18AB1857F8AB90E94343C71
:1021600099B191FF02C082E001C080E093FD8160DF
:10217000CAB990912F01913031F480932E011092C1
:102180002F0110923101909131012FEF290F293F3A
:1021900018F49F5F9093310190912E0180932E014E
:1021A000981771F1282F292720FF2695213029F52E
:1021B000990F2DE830E002C0359527959A95E2F702
:1021C0002370281711F084E001C083E09091300162
:1021D0009F5F9093300190912F01891729F091E032
:1021E000909330019093310180932F0190913001B1
:1021F000923030F01092300104C081E080932F01C2
:1022000080E0CF910895A1E0B0E0E9E0F1E10C9425
:10221000363F8C0181E080932F0110923001809332
:102220002C0162FF08C08091220181FD02C060E0A4
:1022300002C000E010E0862F8370C82E29F081E0F4
:1022400069830E94383B698182E0B82EE12C92E3D9
:10225000D92E812C99249394F12C6270A62E01150D
:10226000110539F00630110518F00550110901C0AB
:10227000912C4F991BC08EE190E00E94D61320E074
:10228000992011F04F9B08C0822E912C2B3108F41D
:102290005CC052E0F52E5BC02F5F2B31A8F78AE0BF
:1022A00090E029830E94D6132981EACF0E94A910C9
:1022B000882351F1EE2019F08F1511F052C0F82E3D
:1022C000E394809131016E2D0E94863E96E09D0D33
:1022D000D92ED80E98E1899F9001112444E03695BB
:1022E00027954A95E1F7293208F028E226952695A8
:1022F0002695233010F433E0B32EEB1005C087E0B1
:10230000821B80932C012DC0EE2021F080913101A1
:102310008D1538F582E090E00E94D613AA20B9F01E
:10232000839488EC881213C091E0991207C080E072
:102330000E94383B812C22E0922E09C081E00E944D
:10234000383B812C9924939402C0FF24F39480910C
:10235000220182FF04C08B7F8093220102C0911072
:102360007ECFCC2019F080E00E94383BF0922B0108
:102370008F2D2196ECE00C94523F65E088EB9BE0BA
:102380000E94031108950F931F93CF93DF93D82FCB
:10239000882321F006EC12E0C3E003C001ED12E057
:1023A000C0E00E949E198C1769F00E948B3AC80108
:1023B0000E9448390E94263987EB92E00E944839F2
:1023C00082E001C081E08230A1F40E949E198C134A
:1023D00006C088EC90E00E94D61381E00AC060E05D
:1023E00084E690E00E940311D13079F7882369F3E5
:1023F00080E0DF91CF911F910F910895A3E0B0E0AD
:10240000E4E0F2E10C94303F69835A0179016624DB
:102410006A94680E1091270155245A94510E8AE34C
:102420000E94E03A32E0712C1A829EEF392E310E72
:10243000232E211A260C81E0581202C03F5F7A80B9
:10244000C72CD12C8601000F111F0A0D1B1D412C1A
:102450009A81892E912C451408F045C062E0640DE4
:1024600081E03B830E94EF393B81E1E05E1671F031
:10247000C601840D911D8816990621F48AE20E94F6
:10248000E03A03C03B830E9463393B81323018F14C
:10249000F981F13039F4F801808191813B830E9408
:1024A00048390BC0C8013B830E94BB3FBC0180E0A0
:1024B00090E020E040E00E94F80F3B81E114F1043D
:1024C00029F0C7013B830E9448393B8180E03B8370
:1024D0000E941A3A3B810E5F1F4F4394641408F028
:1024E000BACF452CB8CFF1E05F120EC06091270142
:1024F000809126010E94EF398A81861510F08CE3C5
:1025000001C08EE30E94E03A60E080E090E00E942B
:1025100003118130B9F18330A9F0843059F59A81E3
:10252000911105C0651450F1722C862D09C08A8165
:102530008150871124C0772011F17A807A947A949F
:1025400032E01EC08A81861105C0EA81E51570F06F
:1025500032E00DC0FA81FF5FFA83832D870DF813F7
:102560000BC0F61548F4739432E065CF31E0712C5E
:102570001A8261CF823031F031E05DCF862D31E0BB
:102580008A8359CF0E948B3A84EF91E00E94D61340
:102590008A812396E2E10C944C3FA9E0B0E0E3EDA0
:1025A000F2E10C943F3F182F8CE591E09A838983E8
:1025B00081E08F8389E591E09C838B8382E088872B
:1025C00080EA92E09E838D8319860E948B3A1230B6
:1025D00019F48EEE92E002C084EE92E00E94483937
:1025E00020E030E0AE014F5F5F4F61E083E00E948A
:1025F000FE11FE01E80FF11D6781662319F0812F9E
:102600000E9465142996E3E00C945B3FAAE2B0E0D7
:10261000ECE0F3E10C94403F84E491E09A838983F9
:1026200086E08D8F83E592E09C838B8387E08E8F9D
:1026300088E492E09E838D8388E08F8F88E491E028
:1026400098878F8389E088A388E392E09A878987B7
:102650008AE089A38CE292E09C878B878DE08AA335
:1026600085E292E09E878D878EE08BA38DEF91E0CF
:10267000988B8F878FE08CA386E093E09A8B898B71
:1026800081E08DA388EF92E09C8B8B8B82E08EA300
:102690008EEE92E09E8B8D8B83E08FA384EE92E092
:1026A000988F8F8B84E088A78DED92E09A8F898F29
:1026B00085E089A780EA92E09C8F8B8F1AA60E9402
:1026C0008B3A8FE093E00E94483920E030E0AE0181
:1026D0004F5F5F4F61E08EE00E94FE11FE01E80F48
:1026E000F11D858DAA96E2E00C945C3FA1E0B0E07C
:1026F000ECE7F3E10C94403F0E94061390E0FC01EC
:102700003197EF30F10508F03FC0EC5CFF4F0C94BF
:10271000093F0E942F1739C00E94191536C082E068
:1027200001C081E00E94CD122FC00E94AD142CC0C8
:102730000E948B3A84E491E00E94483921E431E020
:102740004BE550E062E088E00E94FE1190E0880FC7
:10275000991F855A9F4F0E94BB3F0E94D12C14C0E5
:102760000E94702F11C00E94E5300EC00E9494306C
:102770000BC00E94653108C00E94A93805C00E94A4
:102780007B3202C00E949F2D81E089830E948B3A98
:102790008981811103C086EA92E002C088E193E05A
:1027A0000E9448392196E2E00C945C3F30919601FA
:1027B000A0E0B0E0F4E0880F991FAA1FBB1FFA95B4
:1027C000D1F73630D1F4492F5A2F6B2F77274F5F2F
:1027D0005F4F6F4F7F4FE4E0440F551F661F771F19
:1027E000EA95D1F7481759076A077B0728F4841B35
:1027F000950BA60BB70B01C030E01092B100109200
:10280000B20022E02093B0002093700023B7217F14
:10281000232B23BF0FB607FC03C0789430E001C020
:1028200031E047E00097A105B105F9F0A8958F3F89
:102830009105A105B10509F010F4282F01C02FEF73
:10284000821B9109A109B10921502093B300409343
:10285000B1002091B100222329F323B7216023BFC7
:10286000889523B72E7F23BFF4CF311101C0F89490
:1028700008951F920F920FB60F9211241092B1007B
:102880000F900FBE0F901F901895E9ECF1E088ECC7
:1028900090E0918380838CED90E09383828384E148
:1028A00090E0958384838BE286831782108611865D
:1028B0000895E9ECF1E080E09AE09E0F2191820F0B
:1028C0009E13FCCF09F481E00895EF92FF920F93DD
:1028D0001F93CF93DF93F82E623019F007E613E0D1
:1028E00002C00CE513E00E9459148093D301C9EC97
:1028F000D1E0EC2E8BE0E80E82E0F81205C0688192
:10290000C8010E94C13F04C0C8010E94B33F888330
:1029100021960F5F1F4FEC12EFCF82E0F816C1F047
:102920000E9459149091D301992391F0981781F046
:102930000E948B3A84E992E00E94483986EA92E04C
:102940000E946F3980ED97E00E94D6130E944514D3
:10295000CDB7DEB7E6E00C94583F0F931F93CF93AB
:10296000DF9381E00E946C390E948B3A86E891E007
:102970000E946739C9ECD1E06881798180E090E0FC
:1029800024E04FEF0E94F80F82E891E00E94813925
:102990006A817B8180E090E024E04FEF0E94F80F95
:1029A0008CE691E00E9481396E8170E080E090E0D9
:1029B00026E444EF0E94F80F89E691E00E948139F5
:1029C0006C817D8180E090E024E04EEF0E94F80F62
:1029D00082E991E00E94813906E911E0F801648101
:1029E000758180E090E026E54DEF0E94F80F85E6C6
:1029F00091E00E948139F8016681778180E090E062
:102A000026E54DEF0E94F80F8FE591E00E94813995
:102A10006885062E000C770B880B990B26E54DEF89
:102A20000E9480100E94BD11DF91CF911F910F91E4
:102A30000895A5E0B0E0EFE1F5E10C94303F81E0CE
:102A40000E94C311811103C07AE0572E02C062E0D8
:102A5000562E812C912C1B82612C712C1A82C12C38
:102A6000D12C212CA12CB12C312CE12CF12C00E00B
:102A700010E01D821C824424439486E0851508F4EE
:102A80005FC131E039830E948B3A81E40E94E03AD1
:102A900080E3850D0E94E03A0E94633984E0581675
:102AA00009F450C0851568F092E0591699F0E3E0FA
:102AB0005E1204C180E00E94C31180E034E63983D5
:102AC000FEC0F5E05F1609F466C026E0521609F470
:102AD0009EC0F4C089E691E00E9467398FE691E0DC
:102AE0000E94483940E060E081E00E94F31880E0F5
:102AF0000E948D1B9D838C838639910518F4C80E26
:102B0000D91E239440E060E082E00E94F31880E048
:102B10000E948D1B8C018639910518F4C80ED91EB0
:102B2000239440E061E082E00E94F31880E00E947C
:102B30008D1B7C018639910508F0C0C0C80ED91ED6
:102B40002394BCC086E891E00E94483918B847B881
:102B500045B844B880E00E94D3189D838C8382E0FE
:102B600087B955B854B881E00E94D3188C018C8184
:102B70009D81800F911F680E791E57B890E195B91D
:102B800094B982E00E94D3187C01680E791E3A81C4
:102B90003D5F3A8393C082E891E00E94483915B8BE
:102BA00048B847B844B800919C0110919D0180E05D
:102BB0000E94D318F801E81BF90BFD83EC83F2E0C7
:102BC000F8B9F7B924E024B900919C0110919D0156
:102BD00081E00E94D318081B190B8C819D81800F06
:102BE000911F880E991E34E038B937B980E184B955
:102BF000E0909C01F0909D0182E00E94D318E81AB9
:102C0000F90A8E0C9F1C3B813D5F3B8357C08CE6CD
:102C100091E00E9467398FE691E00E94483940E0D8
:102C200060E081E00E948F2280914C0190914D01E3
:102C3000A0914E01B0914F019D838C83209147015B
:102C4000243F41F485369105A105B10518F4A80E7D
:102C5000B91E339441E060E082E00E948F228091AF
:102C60005B0190915C01A0915D01B0915E018C01CE
:102C700020915601243F41F485369105A105B10507
:102C800018F4A80EB91E339442E061E082E00E947D
:102C90008F2280916A0190916B01A0916C01B0919B
:102CA0006D017C0120916501243F41F48536910539
:102CB000A105B10518F4A80EB91E339481E017B828
:102CC00018B814B815B8882319F10E942639EC8178
:102CD000FD81CF01A0E0B0E020E040E0BC01CD01EB
:102CE0000E94F80F0E946339C801A0E0B0E020E024
:102CF00040E0BC01CD010E94F80F0E946339C7017A
:102D0000A0E0B0E020E040E0BC01CD010E94F80F5F
:102D10003981343669F060E088EE93E00E94031157
:102D2000882331F0823011F454E6552E34E639838D
:102D300039813F5F3983363008F4A5CE53949DCE58
:102D40009FE039120AC0C5016FE070E00E94A03E0A
:102D50006093CF01BB24B39401C0B12CEFE02E12DD
:102D60000AC0C6016FE070E00E94A03E7093CE01E1
:102D70006093CD01B3943A813F3009F069C03B8143
:102D80003F3009F05EC0E5E0F0E0C301BF010E9402
:102D9000A03E9B01C401BF010E94A03E8B01809117
:102DA0009C0190919D016C01CC0CDD1CC80ED91EBC
:102DB000C21AD30AC61AD70AE12CF12CD90120EA8B
:102DC00039E041E050E00E94253FA70196010E94B2
:102DD000C83ECA01B9016B5F7F4F8F4F9F4F2AE0FA
:102DE00030E040E050E00E94C83E2A3F31054105F6
:102DF000510528F43093CA012093C901B394D80136
:102E000020EA39E041E050E00E94253FA701960109
:102E10000E94C83ECA01B9016B5F7F4F8F4F9F4F21
:102E20002AE030E040E050E00E94C83E283181E0D6
:102E300038074105510528F43093CC012093CB018C
:102E4000B3940E94AD1481E094E0B91203C003C0B2
:102E50000E94AD1480E02596E2E10C944C3FA6E080
:102E6000B0E0E5E3F7E10C94303F81E00E94C3114C
:102E7000811103C08AE08E8302C091E09E83C12C41
:102E8000D12CE12CF12C00E010E032E0832E48E060
:102E9000942E54EF452E56E0552E612C712C8E81C8
:102EA000873008F01BC181E08D8390E2392E24E148
:102EB000222E0E948B3A84E50E94E03A8E81805D4A
:102EC0000E94E03A0E9463399E81933009F480C0E9
:102ED00008F04CC0913009F465C0923009F0BCC0D4
:102EE0008DE791E00E9467398FE691E00E944839B2
:102EF00020919C0130919D01A0E7B3E00E940F3F1B
:102F0000A30192010E94EA3E91E095B985E084B95F
:102F100082E029833A834B835C830E94E3182981F2
:102F20003A814B815C816C01C21AD30A91E194B958
:102F300081E029833A834B835C830E94E3182981D3
:102F40003A814B815C817C01E21AF30A84E085B905
:102F500024B880E029833A834B835C830E94E31882
:102F600029813A818C01021B130B76C08E8185303A
:102F700009F45EC008F455C0863009F06DC08AE8D7
:102F800091E00E94483984B885B880E00E94E31837
:102F90008C0194B895B881E00E94E3187C0134B8A4
:102FA00035B856C08EE00E9473188EE00E947318E8
:102FB0005C0182E991E00E9448390E942639B501FE
:102FC00080E090E026E54DEF0E94F80F80E045C0DC
:102FD00088E791E00E9467398FE691E00E944839C6
:102FE00000919C0110919D011695079585B89AE076
:102FF00094B982E00E94E3186C01C01AD10A82E2FF
:1030000084B981E00E94E3187C01E01AF10A95B8C6
:1030100098E294B980E00E94E318801B910B8C0128
:103020001BC080E00E94C31180E094E69D8315C020
:103030008EE891E00E94483915B884B880E00E947B
:10304000E3188C0194B881E00E94E3187C0134B845
:1030500082E00E94E3186C0181E014B815B888235F
:1030600009F10E94263920E040E0B801012E000C51
:10307000880B990B0E9480100E94633920E040E089
:10308000B7010F2C000C880B990B0E9480100E9436
:10309000633920E040E0B6010D2C000C880B990B41
:1030A0000E9480108D81843679F060E088EE93E094
:1030B0000E940311882341F094E6823021F49E831C
:1030C00084E68D8301C09D838D818F5F8D838630E3
:1030D00008F4EFCE9E819F5F9E83E1CE81E026962D
:1030E000E2E10C944C3FCF93DF93D82FD064D09380
:1030F0007C00CD2FC07C80919901C81769F00E9497
:10310000383C80917A00806480937A0080917A00C4
:1031100086FDFCCFC093990120E030E0A90190E04A
:10312000E09197019E1708F580917A008064809362
:103130007A0080917A0086FDFCCF609178007091D2
:103140007900260F371F411D511D943061F4211560
:1031500084E0380740F4C03C31F080919801813020
:1031600011F4D06CC4CF9F5FDBCFC03C29F4A09199
:103170009A01B0919B0104C0A0919C01B0919D0166
:103180000E94253F2AE096958795779567952A9521
:10319000D1F72E2F30E040E050E00E94C83EC90138
:1031A000DF91CF910895A1E0B0E0E9EDF8E10C9452
:1031B000403F89830E942F3C89810E947318219689
:1031C000E2E00C945C3FA1E0B0E0E9EEF8E10C94A1
:1031D000403F89830E942D3C89810E94731821966B
:1031E000E2E00C945C3FA0E0B0E0E9EFF8E10C9481
:1031F0003A3FE62E042FC7EBD1E0888369834A83E8
:10320000C82ED12CC601875F9F4F0E94B33F8E838B
:10321000F12CC701875F9F4F0E94B33F8F8310E05F
:10322000C801875F9F4F0E94B33F8887C6018A5FAE
:103230009F4F0E94B33F8987C7018A5F9F4F0E94BB
:10324000B33F8A87C8018A5F9F4F0E94B33F8B8735
:10325000C6018D5F9F4F0E94B33F8C87C7018D5F72
:103260009F4F0E94B33F8D87C8018D5F9F4F0E9483
:10327000B33F8E87C601805090400E94B33F8F8736
:10328000C701805090400E94B33F888BC801805096
:1032900090400E94B33F898BCDB7DEB7E8E00C9435
:1032A000563FE7EBF1E04581648183810E94F3188A
:1032B0000895E7EBF1E080818383818184838281BB
:1032C0008583089523E030E0A901481B5109CA0114
:1032D000861B0895CF93DF9340E00E94F31817B840
:1032E0008091BD0185B99091BE01892B84B98091EF
:1032F000C6010E94D318EC018091C7010E94731887
:10330000AC0120919C0130919D0136952795B90122
:103310006E5171096C177D0760F4225E3F4FC21732
:10332000D30738F46417750720F481E04217530778
:1033300008F080E014B8DF91CF910895CF9361E059
:1033400080E00E946A19C82F62E080E00E946A193A
:10335000C80F62E081E00E946A198C0FCF91089536
:10336000A7E0B0E0E6EBF9E10C94363F17B818B8E7
:1033700015B88FE384B980E00E9473189A8389831B
:1033800081E00E9473189C838B8382E00E947318F3
:103390009E838D83D12C02E028E211E0AA24A3941D
:1033A000B12C0F5F033009F400E0802E912C8D2D9D
:1033B00090E0002E02C0959587950A94E2F780FD73
:1033C0005DC0802F2F830E9473187C01F401EE0FE3
:1033D000FF1F81E090E08C0F9D1FE80FF91F808197
:1033E00091812F81E816F90660F4F182E082822F44
:1033F00090E0811B910944976CF42B3E58F42C5EAD
:1034000009C09AE0E916F10418F4283209F420E51D
:103410001F5F01C011E083E0E816F10440F4C5012C
:10342000082C01C0880F0A94EAF7D82A0FC090E24E
:10343000E91693E0F90650F4C7B0C4018D5F9F4FC1
:103440002F830E94B33F8C2987B92F8187E0D8163C
:10345000B9F0211760F481E08093020180930301A9
:1034600000930801F0920A01E092090109C0A895B1
:1034700082E390E02F830E94D6132F81111191CF08
:1034800014B817B82796ECE00C94523FCF93C82F8E
:10349000C09595B160FF02C0982B01C09C2395B9DF
:1034A00094B1892B84B963FF03C00E94333C02C0EE
:1034B0000E942E3C84B18C2384B985B18C2385B9BC
:1034C000CF910895A0E0B0E0E8E6FAE10C943B3F2C
:1034D000613039F0623071F06330A9F080E090E043
:1034E0004FC0CBE6D0E0E7E0F0E002E310E048EECA
:1034F00053E011C0CDE7D0E0EAE2F0E009E110E0EE
:103500004CE251E008C0CBE1D0E0EEE1F0E009E1AF
:1035100010E048EC50E08417950778F1841B950B78
:10352000B8010E94A03ED02ED81ACB019927E817E7
:10353000F90710F0262F01C02E2FC20FD11DC20F88
:10354000D11DCE010E94BB3F7C01CE0102960E949C
:10355000BB3F9C01E81AF90ADE9CA001DF9C500DDC
:103560001124C80196958795840F951FB8010E9474
:10357000A03ECB01820F931F03C0D02E20E0DDCFF1
:10358000CDB7DEB7E7E00C94573F0F931F93CF936F
:10359000DF9390910201913009F499C0062F182F02
:1035A000A8950E94F31815B88091BE0184B9809146
:1035B000C30187B988B960E18091BF010E94461AB2
:1035C0008091C7010E94D318EC01813D934050F0D7
:1035D00061E18091BF010E94461A8091C7010E945B
:1035E000D318EC01C031D10528F480910401811178
:1035F00028C00DC080910401811164C0CE010E94D9
:10360000C027C13D83E0D80708F03FC0EECF8091CE
:10361000BE0184B915B88091C30187B988B90E94E9
:103620002F3C9091BF018091BE01892B84B9802FDE
:103630000E94D3188F359D4020F0BE0182E00E9489
:10364000F62580910401811119C08091C40187B9C8
:1036500018B89091BF018091BD01892B84B985B9BB
:10366000812F0E94D3188034964040F40E94302964
:10367000811104C0BE0181E00E94F6258091040101
:1036800081110BC00E94222A08C08091040181117F
:1036900002C00E94D1290E94C52380910201882383
:1036A00011F08A3019F40E944C1C07C08F3129F4A4
:1036B0008091030184FD0E94C02417B818B814B883
:1036C00015B805C0C13D83E0D80728F78ECFDF913C
:1036D000CF911F910F910895809105018823E1F00A
:1036E0009091040190FD18C091FD04C090910201D9
:1036F0009E3190F480930201809132018093A10168
:10370000809133018093A201809134018093A301C1
:1037100080910C0180930B010895A4E0B0E0E3E9EF
:10372000FBE10C94313F382E0E94B01980910201C8
:10373000813009F45DC018B88091C40187B98091C7
:10374000BD0185B984B90E942E3CC12CD12C7601D3
:1037500081E0182F117080FF03C08091C60102C064
:103760008091C701A895806C80937C000E94383CB2
:1037700080917A00806480937A0080917A0086FD3F
:10378000FCCF04E620E030E0A90180917A0080645B
:1037900080937A0080917A0086FDFCCF809178003A
:1037A00090917900280F391F411D511D29833A83BB
:1037B0004B835C830E94353C015029813A814B81C7
:1037C0005C810111E2CFA0919A01B0919B010E940E
:1037D000253F4B015C018AE0B694A79497948794A7
:1037E0008A95D1F782E0112331F075016401B1CFE0
:1037F00080E090E04DC015B89091C3018091C40164
:10380000892B87B98C149D04AE04BF04E0F5209188
:103810009C0130919D01A4E6B0E00E940F3F9B0106
:10382000AC012C193D094E095F090E94253F2B016F
:103830003C01A7019601281939094A095B09A8EE3C
:10384000B3E00E94253F6B017C012091CB013091B8
:10385000CC012057354E40E050E0C301B2010E9438
:10386000C83EC701B6010E94C83EC90161E03612D8
:103870000CC06091CD017091CE016217730718F4EE
:10388000861B970B02C080E090E020EC209399010A
:103890002496E1E10C944D3FA2E0B0E0E2E5FCE1CA
:1038A0000C94303FA89518B88091C40187B98091D5
:1038B000BD0184B985B98091C7010E94D3187C01EC
:1038C0008091C6010E9473184C0115B88091C00107
:1038D00084B98091C6010E94D318459708F017C299
:1038E0008091C00185B98091C6010E94D3186C01F6
:1038F0008091C30187B988B915B88091BE0184B998
:103900008091C6010E94D3182C018091C7010E94AA
:1039100073185C018091C10184B98091C7010E9434
:10392000D3183C0120E3821621E1920628F432E606
:10393000C316D10438F0EBC14CE6C41643E1D406FB
:1039400008F0E5C159EAA516B10408F06CC086E29A
:103950006816710408F4DBC1D60120EF3BE247E0B2
:1039600050E00E94253F00919C0110919D0198011B
:103970002C193D0940E050E00E94C83E49015A011F
:10398000D801A619B70920EF3BE247E050E00E94BA
:10399000253F830120E030E0A90198010E94C83E44
:1039A0009EEDC91693E0D90670F4F2E0880C991CDC
:1039B000AA1CBB1CFA95D1F7C501B401620F731F95
:1039C000841F951F14C0DA01C901EEED6E16E3E005
:1039D0007E06A0F4E2E0880F991FAA1FBB1FEA959C
:1039E000D1F7BC01CD01680D791D8A1D9B1D25E015
:1039F00030E040E050E00E94C83E0AC0880D991DAA
:103A0000AA1DBB1D9C01AD0156954795379527957D
:103A100024543D4F4F4F5F4FAAE0B0E00E94253F36
:103A20004B015C0166C18E149F0408F471C04A14F6
:103A30005B0408F46DC040919C0150919D01841677
:103A4000950619F4F1E08F1A9108A091CB01B0917D
:103A5000CC01A057B54E94012E193F090E940F3F8B
:103A60009A012819390940E050E00E94C83E6901D6
:103A70007A01A091C901B091CA01A057B54E920137
:103A80002A193B090E940F3F850120E030E0A9017F
:103A900098010E94C83E8EED881683E0980680F457
:103AA0004601570162E0880C991CAA1CBB1C6A9550
:103AB000D1F7C501B401620F731F841F951F14C095
:103AC0009EEDA91693E0B906C0F4DA01C90142E0FF
:103AD000880F991FAA1FBB1F4A95D1F7BC01CD01C2
:103AE0006C0D7D1D8E1D9F1D25E030E040E050E0F7
:103AF0000E94C83E49015A01FCC046015701820E8E
:103B0000931EA41EB51EB694A79497948794F1C0F3
:103B1000EFE8AE16E2E1BE0608F4F5C02AE0822E18
:103B2000912CA12CB12C81E00E948D1B6C01E12C09
:103B3000F12CA4E1B0E0A50194010E94253F61159C
:103B400071058105910521F464E670E080E090E064
:103B5000C616D706E806F90628F446015701FEEF17
:103B6000FA8302C02FEF2A8380E09AE0F92E909129
:103B70000601891708F0A3C0682E712C47E0469D06
:103B80009001479D300D1124F901E35FFE4F6F0155
:103B900020819091B70129138EC021819091B801A5
:103BA000291389C0E12C02E010E020E030E04A81D6
:103BB000C501B4010E941D0F8F3F09F042C0F601FC
:103BC000638174818581968102E010E020E030E01D
:103BD00042810E941D0F8F3F69F5F6014281FA81F3
:103BE0004F1711F05FEF01C051E027E0269DC001A3
:103BF000279D900D1124FC01E35FFE4F6F0163814F
:103C0000748185819681EA809501840159830E949F
:103C10001D0F5981F601851307C083809480A5800C
:103C2000B680F281FA8306C083829482A582B6822E
:103C30002A812283140125015694479437942794AE
:103C40000AC0C501B40124E130E040E050E00E9428
:103C5000C83E19012A0137E0369DC001379D900DFD
:103C60001124AC01435F5E4F6A01FA0163817481E4
:103C700085819681EA80950184010219130924093E
:103C8000350942810E941D0F87FD17C092018101F5
:103C9000080D191D2A1D3B1DF60163817481858164
:103CA0009681EA8042810E941D0F181634F0F0922E
:103CB000020184E65CCF8F5F5ACF88EC58CF843600
:103CC00031F1933020F527E0929FF0011124E35F5A
:103CD000FE4F8091B80180838091B70181838382F8
:103CE0009482A582B6823A8132839F5F90930601C7
:103CF0000EC044E684169104A104B10408F413CF65
:103D00005FEF5A8331CF812C912C54010CCF229636
:103D1000E2E10C944C3FEF920F931F93CF93C42F8B
:103D20001092060140E00E94F3180E944C1C809102
:103D300006018130B1F4CC23B1F000911001109153
:103D4000110120911201309113016C2F70E080E07D
:103D500090E0E0900F0143E00E941D0F91E0813060
:103D600019F090E001C091E0892FCF911F910F9140
:103D7000EF900895813138F0815115BC92E094BDE7
:103D800087BD81E0089580E0089516BC81E085BD7F
:103D9000A99BFECF15BC82E085BB0895A5E0B0E0ED
:103DA000E4EDFEE10C94303F009719F42FEF3FEF64
:103DB0002CC19D838C83FC016381748185819681F4
:103DC000A7EFEA2E0AE010E020E030E042810E94F6
:103DD0001D0F87FDEBCF0E94B01980910201813049
:103DE00029F340E0EC81FD81618180810E94F3181C
:103DF0009091C6018091C701906C992E082F006C9C
:103E000015BC82E084BD85E687BD18B890937C0020
:103E10000E942E3C88248A94C12CD12C7601C39414
:103E2000412C512C3201439480E090E052E3A52EC6
:103E3000B12C17EDA895C29758F48091C40187B9A9
:103E40008091BD0185B984B90E94413C14B815B870
:103E5000F2E3AF16B10458F48091C30187B98091A1
:103E6000BE0185B984B90E94413C14B815B880914F
:103E7000C30187B98091BD0185B984B990927C0056
:103E800010937A0080917A0086FDFCCF10937A001F
:103E900080917A0086FDFCCF2091780030917900E6
:103EA0003B832A8300937C0010937A0080917A00F0
:103EB00086FDFCCF10937A000E943D3C0E94C51EF7
:103EC0008091BE0185B984B90E94413C15B814B8EF
:103ED00080917A0086FDFCCFA0907800B0907900A8
:103EE0008091C40187B98091BE0185B984B90093DE
:103EF0007C0010937A0080917A0086FDFCCF1093AD
:103F00007A0080917A0086FDFCCF20907800309076
:103F1000790090927C0010937A0080917A0086FD5F
:103F2000FCCF10937A000E943D3C0E94C51E8091F8
:103F3000BD0185B984B90E94413C15B814B880917F
:103F40007A0086FDFCCF80917800909179002A81DB
:103F50003B81A90160E070E0420D531D611D711DA0
:103F6000440E551E661E771EA50160E070E0480FE6
:103F7000591F611D711DC40ED51EE61EF71E8A94C1
:103F8000811058CF4C145D046E047F04C8F58091F5
:103F9000C9019091CA012AE0289FD001299FB00D44
:103FA0001124A701960124193509460957090E94D1
:103FB000253FA30192010E94C83E8091CD019091BE
:103FC000CE018217930718F4281B390B1BC0EC8114
:103FD000FD8163817481858196812AEFE22E08EE4E
:103FE00013E020E030E042810E941D0F21E030E02C
:103FF000181614F420E030E031952195310902C003
:104000002FEF3FEF80EC80939901C9012596E2E103
:104010000C944C3FA0E0B0E0E0E1F0E20C94353FBE
:104020008C0121E1922E33E0732E0E94B019809111
:104030000201813009F416C118B88091C40187B912
:1040400015B814B88091C6010E9473186C01E12C58
:10405000F12C8FEFE81AF80A692D8091BD010E94BA
:10406000461A8091C6010E947318C816D90688F4B2
:10407000EC01CC19DD09EEE7EE16F10421F4CB34A6
:10408000D10568F0F5C0CC32F1E0DF0740F491E0F3
:1040900007C0C0E0D0E0FEE7EF16F104C1F790E002
:1040A00084EFE81681E0F80609F490E0A8959111F4
:1040B000D0CFCC32E1E0DE0710F477247394F1E046
:1040C000EF16F10461F4C53185E0D80740F0892D81
:1040D000807199E0992E09F0A8CF92E0C7C0972D82
:1040E000E3E07E12C3C0570180E090E0A114B10468
:1040F00059F0F1E0AF1AB1088091C6010E9473181F
:104100008C199D09A895F2CF8C179D0748F46E0174
:10411000C81AD90A85E6C816D10420F0712C02C04D
:10412000C12CD12C8091C6010E9473185C01E92D2D
:10413000E0718E2E19F00E94233C02C00E94283CA0
:104140008091C6010E9473188A159B0518F4A81A5D
:10415000B90A02C0A12CB12CF3E07F1285C062E045
:10416000C6018C0F9D1F0E94621A9C01D7010E94FC
:104170000F3F6B017C01882039F1AAE0B0E09B0180
:10418000AC010E94253F6B017C0188E3C81689E8D9
:10419000D80681E4E806F10408F470C0C701B6014E
:1041A00028EE33E040E050E00E94C83E69017A0109
:1041B000A4E6B0E00E94253FCAEF882089F02DE6F2
:1041C00030E040E050E010C0683379488144910508
:1041D00028F7A4E6B0E0A70196010E94253FC7EFAB
:1041E00028E630E040E050E00E94C83E8091B801EF
:1041F000F80180838091B7018183C283C782D08612
:10420000E186F28623833483458356838AE0C82E71
:10421000D12CE12CF12C2130F5E33F07FCE04F07D6
:10422000510540F0CA01B901A70196010E94C83E9C
:10423000CF5FF1CFD5010E94253F28EE33E040E06B
:1042400050E00E94C83ECA01B90193FCCF5F28EF3D
:104250004C2F0E94840FF8016387748785879687A7
:1042600083E014C080E012C0872D10C0892F0EC0DB
:10427000CC3281E0D80708F018CF09CFA4E6B0E02F
:10428000A70196010E94253FC7EF99CFCDB7DEB7B2
:10429000EDE00C94513FA4E0B0E0E1E5F1E20C94D4
:1042A000343F3C010E94B01980910201813009F431
:1042B00068C015B897E097B918B88091C00184B963
:1042C00080E480937B0084E480BF8091C601806499
:1042D00080937C0090937A000E94373C109280007B
:1042E00010928100109285001092840087E286BBB4
:1042F0008091C00185B9809102018F3129F48091AC
:10430000C3018095877002C08091C40191E09093B1
:10431000810087B900E010E086B385FD0AC080FF08
:10432000FBCF96BBA8950F5F1F4F00382CE01207FC
:1043300099F71092810090E296BBE0908600F09091
:10434000870014B84091840050918500E416F5066A
:1043500030F480FF04C081E086BB0F5F1F4F87E908
:1043600080937A008091C6010E9473186C0115B881
:104370008091C00184B900388CE0180720F081E0FA
:10438000CAC080E0C8C0C701A0E0B0E0A80160E0FA
:1043900070E0BA01552744279A01AB01282B392B2D
:1043A0004A2B5B2B2330310541055105A8F02250E3
:1043B000310941095109283399E8390791E449073E
:1043C000510550F0CA01B90128EE33E040E050E059
:1043D0000E94C83E17EF01C014EF7091D101809187
:1043E0009A0190919B0161E0870F911D77FD9A954D
:1043F00029833A834B835C830E94621ADC01298102
:104400003A814B815C810E94253F20E436E040E008
:1044100050E00E94C83E143F89F48091CF0190E0A3
:10442000A0E0B0E0281739074A075B0750F04901C0
:104430005A01881A990AAA0ABB0A06C049015A01F8
:1044400003C0812C912C54018091B801F301808329
:104450008091B701818312832783308741875287F8
:1044600083829482A582B682143F49F4F0EA8F16C3
:10447000F6E89F06F1E0AF06B10460F44BC0173FC9
:1044800009F048C021E282162EE49206A104B1048C
:1044900008F040C08091C6010E947318853D93408A
:1044A000C8F714B8109298018091C6010E94731841
:1044B0008C0181E0809398018091C6010E9473185D
:1044C000AC018091C00184B9D801A41BB50B009147
:1044D0009A0110919B01CD010496099788F09801EB
:1044E0000E941E3F9A0140E050E00E94EA3E809107
:1044F000D001280F2093D001080D111D87FC1A95BB
:10450000C601801B910B8C01C1968336910510F476
:104510000093D10183E02496EEE00C94503F8F92FB
:104520009F92BF92CF92DF92EF92FF920F931F93D1
:10453000CF93DF931F92CDB7DEB7C42ED12C2FE0DF
:10454000429FF0011124EB5BFE4F1082118294EF29
:104550009283178210861186128613821482158226
:104560001682138614861586168690910201913064
:1045700009F488C0B62EF82E9A3039F06B2D8F2DA5
:104580000E94B2230097A1F53AC08EE0882E81E008
:10459000982E50E080910601581730F5F4013197BC
:1045A00080818F1104C0F40190819B1531F08B1133
:1045B00016C0F40180818F1112C0F40162817381F1
:1045C00084819581E12C0AE010E020E030E0418117
:1045D00059830E941D0F59818F3F09F453E65F5F95
:1045E000F7E08F0E911CD6CF543609F04BC0C6CFE2
:1045F000FC01828193818C3D954008F443C08FE09B
:104600008C9D80018D9D100D11240B5B1E4F40E091
:104610006B2D8F2D0E94F318C8010E940A20823052
:1046200019F4C8010E944B2180910201843120F5C8
:104630008A3079F48FE08C9DF0018D9DF00D11246E
:10464000EB5BFE4F82818A3FBCF08BE080930201DE
:1046500013C08FE08C9DF0018D9DF00D1124EB5B5C
:10466000FE4F8281853F8CF783819481A581B6813D
:104670000597A105B10548F70E94B01917B818B8F9
:1046800014B815B80F90DF91CF911F910F91FF9043
:10469000EF90DF90CF90BF909F908F900895CF9232
:1046A000DF92EF92FF92CF93C82F15B88091BE0191
:1046B00084B99091C30197B998B98091C7010E94BC
:1046C000D3188430910500F1C090C901D090CA017F
:1046D000E12CF12C893725E0920770F0C13061F4AC
:1046E00014B89091C4018091C301892B87B980913E
:1046F000C7010E94731806C020E9C20E2AE1D21E2B
:10470000E11CF11CC9EF0FC08091C10184B98091F7
:10471000C7010E94D31820EFC22E2BE2D22E27E031
:10472000E22EF12CC8EF17B818B814B815B8DC0190
:1047300020EA36E841E050E00E94253FA7019601BB
:104740000E94C83E2093AC013093AD014093AE016E
:104750005093AF01C093B001CF91FF90EF90DF90E5
:10476000CF90089590910701E2E7F1E0992349F095
:104770002081821303C02181621729F0915036965F
:10478000F5CFE0E0F0E0CF010895A0E0B0E0EBEC81
:10479000F3E20C94363FA8950E94B0198091020173
:1047A000813009F4E8C018B88091C40187B98091BC
:1047B000C6010E9473184C018091C00184B985B96B
:1047C00061E18091BF010E94461A8091C6010E945A
:1047D000D3185C018091BD0184B985B961E18091F4
:1047E000BF010E94461A8091C6010E94D3186C0135
:1047F0008091C7010E9473188C010E94B0198091AA
:104800000201813009F4B7C018B88091C40187B99A
:104810008091C6010E9473187C0117B88091C30172
:1048200088B987B915B88091C10184B960E18091D8
:10483000BF010E94461A8091C6010E94D318EC0164
:104840008091C7010E947318C817D90718F0C81BB8
:10485000D90B02C0C0E0D0E0C01AD10A8091BE01DD
:1048600084B960E18091BF010E94461A8091C6011F
:104870000E94D3188C018091C7010E947318081BF5
:10488000190B17B80C151D0538F49601201B310BB8
:104890007401E501860103C098012C193D09293EE8
:1048A000334008F068C0C630D10508F464C0EC1687
:1048B000FD0620F4CE018E199F0903C0C7018C1B91
:1048C0009D0B23E0E216F10420F08436910508F4F4
:1048D00052C0C832D10538F0C801875991098938CA
:1048E000914158F148C015B88091BE0184B98091BA
:1048F000C30188B987B98091C7010E94D3187C0190
:104900008091BD0184B98091C40188B987B9809133
:10491000C6010E94D3189C01C70164E170E00E94A7
:10492000A03EC701861B970B82179307A8F6E60ED9
:10493000F71E2E153F0580F61EC0809102018823C8
:1049400011F08A3019F484E180930201809107010B
:1049500096E0899FF0011124EE58FE4F9091B70127
:1049600090839091B801918313830283D583C4838C
:104970008F5F80930701CDB7DEB7ECE00C94523F18
:10498000209103018091A3019091A20120FF03C017
:10499000682F892F01C0692F0E94B223892B49F00B
:1049A0001092020110920301809104018E7F809386
:1049B00004010895A1E0B0E0E0EEF4E20C94363F8B
:1049C000482F4170A42E80FF06C0B090BD01809199
:1049D000C30190E105C0B090BE018091C40191E196
:1049E0008770982E8091C801806480937C008AE053
:1049F000882EC12CD12C76010FEF13E0A895692FDA
:104A00008091BF0199830E94461A8091C2018B292F
:104A100084B99981AA2021F086B18921E9F703C0E0
:104A200086B18921E9F3B4B880917A0080648093DB
:104A30007A0080917A0086FDFCCF20917800309139
:104A40007900AA2029F0C20ED31EE11CF11C07C078
:104A5000A801421B530BC41AD50AE108F1088A9435
:104A60008110CCCFC701B6012AE030E040E050E031
:104A70000E94EA3EA0919C01B0919D010E94253FB9
:104A800020E034E040E050E00E94EA3E3093A7018D
:104A90002093A6012196ECE00C94523FA0E0B0E0F8
:104AA000E4E5F5E20C943A3F182F8091BF011130F4
:104AB000D1F49091C30197B998B99091BE01982B08
:104AC00094B985B98091C7010E94D3187C01C09127
:104AD0009C01D0919D018091C8010E9473189E0194
:104AE000281B390B18C018B89091C40197B9909140
:104AF000BD0195B9982B94B9E0909C01F0909D016F
:104B00008091C6010E94D318E81AF90A8091C80161
:104B10000E9473189C01C701821B930BB9010E946C
:104B2000A03E6B01E12CF12C2031310508F057C07B
:104B30009091C2011130D1F48091BE01892B84B9CA
:104B400095B98091C7010E94D3188C01C0919C0136
:104B5000D0919D018091C8010E947318FE01E81B4D
:104B6000F90BC091C901D091CA0117C08091BD0154
:104B7000892B84B900919C0110919D018091C601FF
:104B80000E94D318081B190B8091C8010E9473184A
:104B9000FC01C091CB01D091CC01309711F4E1E040
:104BA000F0E0D80120EF3BE247E050E00E94253FD3
:104BB0009F0140E050E00E94C83EAAE0B0E00E94A1
:104BC000253F9E012057354E40E050E00E94C83EF0
:104BD000C216D306E406F50610F469017A01C7018E
:104BE000B601CDB7DEB7E8E00C94563F8F929F92A6
:104BF000AF92BF92EF92FF920F931F93CF93DF93E9
:104C000000D000D0CDB7DEB7F82E5B010E94591955
:104C10008091C20121E0F21222C09091BD01892B46
:104C200084B985B90E942A3C80909C0190909D0196
:104C30008091C6010E947318881A990A00919C01FC
:104C400010919D018091C8010E947318F801E81B22
:104C5000F90B88E49DE02DEF39E011E013C090914D
:104C6000BE01892B84B98091C7010E94D3184C01E1
:104C70008091C8010E947318FC0180ED97E021ED3E
:104C800033E012E02E173F0708F0D6C080910201F2
:104C90008E3171F4809104018160809304018091D0
:104CA00003019F2D982349F484608093030105C07C
:104CB0008EE180930201F0920301A814B90410F46C
:104CC0008A189B08D40120EF3BE247E050E00E94A5
:104CD000253F9F0140E050E00E94C83EAAE0B0E0BE
:104CE0000E94253F31E0F31205C02091CB013091A5
:104CF000CC0104C02091C9013091CA012057354E22
:104D000040E050E00E94C83E8F2D29833A834B83B8
:104D10005C830E944E254B015C0129813A814B81C5
:104D20005C81621773078407950710F449015A01E3
:104D300081E040E0F81205C06091B9018091B801AE
:104D400004C06091B7018091B9010E948F220E9436
:104D500051198091030182FF28C0009148011091F0
:104D6000490120914A0130914B016091B10170914C
:104D7000B2018091B3019091B401E090470140915C
:104D8000B5010E941D0F813069F01092A8011092A8
:104D9000A9011092AA011092AB018F2D846080931B
:104DA000030103C0812C912C54018091A8019091A2
:104DB000A901A091AA01B091AB0188159905AA0596
:104DC000BB0508F0CEC080E00E944F238092A8016E
:104DD0009092A901A092AA01B092AB0180914801E2
:104DE00090914901A0914A01B0914B018093B1018A
:104DF0009093B201A093B301B093B40180914701A5
:104E00008093B5018091B9018093A1018091B70190
:104E10009091B80121E0F21207C08093A201909313
:104E2000A30110920B019DC09093A2018093A30156
:104E300081E080930B0195C031E6A316B10408F020
:104E400090C08815990508F08CC08091C6010E9419
:104E500073185C018091C7010E9473189501281B8B
:104E6000390BC9012A3F3105C0F52FE1209302011A
:104E7000212F246120930301113041F42091CB01B3
:104E80003091CC012057354E42E007C02091C90136
:104E90003091CA012057354E43E040930B014AE060
:104EA000489FD001499FB00D11240E940F3F9401EB
:104EB00040E050E00E94C83E8091CD019091CE012B
:104EC0008217930718F4281B390B02C020E030E04A
:104ED0003093A5012093A4010EC080E280930201CB
:104EE000812F846080930301113011F488E001C0A8
:104EF00089E080930B01812F0E94DA2480910401C4
:104F00008160809304018091B9018093A101909107
:104F1000B7012091B801113029F49093A201209398
:104F2000A30104C02093A2019093A30140E06091EB
:104F3000A3010E948F228091480190914901A09184
:104F40004A01B0914B018093B1019093B201A093BB
:104F5000B301B093B401809147018093B5010E94E1
:104F600051190F900F900F900F90DF91CF911F91DB
:104F70000F91FF90EF90BF90AF909F908F9008950A
:104F8000A0E0B0E0E6ECF7E20C94343F6C018B3E1D
:104F9000914020F4E8E2AE2EB12C04C078EEA72EAA
:104FA000BB24B3949091C2018091BE01892B84B936
:104FB0008091C7010E94E3187C018091C20185B9EC
:104FC0008091C7010E94E3188C01C7018A0D9B1DC7
:104FD0008017910708F054C08091C40188B987B93F
:104FE0009091C2018091BD01892B84B915B880913F
:104FF000C6010E94E3184C018091BD0184B98091E3
:10500000C6010E94D3183C019091C2018091BD015C
:10501000892B84B995B98091C6010E94E318EC01EF
:1050200018B88091C40187B99091C2018091BD01E7
:10503000892B84B985B98091C8010E94E31888340E
:105040009F4028F089E18093030184E011C0C601EC
:10505000880F991F6816790698F4660C771C660C01
:10506000771CC614D70460F489E28093030186E0BC
:1050700080930B0198012E193F09C819D9095DC009
:1050800018B88091C40187B99091C2018091BD0187
:10509000892B84B985B98091C6010E94E3187C01EF
:1050A0008091BD0185B98091C6010E94E3184C0131
:1050B0008A0D9B1D8E159F0508F0CDC08091C30100
:1050C00087B99091C2018091BE01892B84B985B9BD
:1050D0008091C7010E94E318EC018091BE0184B960
:1050E00085B900919C0110919D018091C7010E949A
:1050F000D3183C019091C2018091BE01892B84B9E3
:105100008091C7010E94E3185C0115B88091C3012A
:1051100088B987B98091C8010E94E318813D934006
:1051200008F084C08AE18093030185E080930B013D
:10513000CA19DB099701281939098FE18093020107
:10514000809104018160809304014091B9014093F2
:10515000A1018091B7019091B801C217D30728F43B
:105160008093A2019093A30104C09093A201809325
:10517000A301C90162E370E00E94A03EC901861B41
:10518000970BC817D90750F0620F731F6C177D0774
:1051900028F0809103018064809303016091A30152
:1051A0008091A2010E94F3189091C5018091C401E1
:1051B000892B87B99091BD0194B92091030120FFFB
:1051C00013C018B895B9C0919C01D0919D018091F0
:1051D000C6010E94E3189E01281B390BC9014091AA
:1051E000CB015091CC010AC088B915B88091C60195
:1051F0000E94E3184091C9015091CA014057554E91
:105200009C01A0E1B7E20E940F3F9A0140E050E00C
:105210000E94C83E2093AC013093AD014093AE0193
:105220005093AF018AEF8093B00115C09801261901
:105230003709C601880F991F2817390760F4220F14
:10524000331F220F331FC216D30628F48AE280933D
:10525000030187E06BCFCDB7DEB7EEE00C94503F93
:10526000EF92FF920F931F93CF93DF938091C8012A
:105270000E9473188C018091C7010E9473187C01F1
:1052800060E18091BF010E94461A8091C6010E9490
:10529000D318EC0115B80E942F3C8091BD0185B94F
:1052A0008091C6010E94D318C034D64008F05FC078
:1052B0008133914108F45BC014B815B88091C401E2
:1052C00088B90E942F3C8091BD0184B98091C601AC
:1052D0000E94D318853F910508F049C060E1809194
:1052E000BF010E94461A8091C6010E94D318EC01AA
:1052F000CD3D82E0D80760F482E280930201809184
:1053000004018160809304018AE080930B0131C025
:105310008091BD0185B90E942F3C15B88091C601CE
:105320000E94D318853F910510F5809102018132CA
:1053300029F49091040191609093040181E280939B
:1053400002018BE080930B018091A8019091A9014B
:105350008C179D0700F5AE0160E070E04093A80156
:105360005093A9016093AA017093AB0102C080E041
:1053700013C08091B9018093A1018091B7018093FE
:10538000A2018091B8018093A3010E191F09109307
:10539000A5010093A40181E0CDB7DEB7E6E00C944F
:1053A000583FEF92FF920F931F93CF93DF9380911B
:1053B000C6010E947318EC018091C7010E94731806
:1053C0007C018091C8010E9473188C0117B88091EC
:1053D000C30188B92091C20125B99091BE01922BD9
:1053E00094B982E390E00E94D6138091C30187B9FB
:1053F0008091C7010E9473180A97F8F483E28093A2
:1054000005018CE080930C018091B90180933201F9
:105410008091B701809333018091B801809334016A
:10542000CE018E199F099093360180933501C01BE0
:10543000D10BD0933801C0933701CDB7DEB7E6E08A
:105440000C94583FEF920F931F93CF93DF9380916B
:10545000060181117AC00E944C1C809106018130A6
:1054600009F073C0609110017091110180911201D7
:1054700090911301E12C08EB1BE020E030E040911B
:105480000F010E941D0F813099F4609110017091FD
:105490001101809112019091130108E91AE320E0B3
:1054A00030E040910F010E941D0F91E08F3F09F005
:1054B00090E010920601992309F447C015B8809135
:1054C000BE0184B98091C30188B987B98091C701B1
:1054D0000E94D318EC018091BF0185B99091BE0163
:1054E000982B94B98091C7010E94D318C817D90787
:1054F00060F59C012C1B3D0B293E334030F120917F
:105500000501243261F420910401226020930401FA
:10551000209135013091360182179307B0F024E2D3
:10552000209305012DE020930C012091B9012093D7
:1055300032012091B701209333012091B8012093CB
:1055400034019093360180933501DF91CF911F9103
:105550000F91EF9008950F931F93CF93DF930097D0
:1055600011F480E0C8C0162FEC010E94B0198091A0
:1055700002018130B1F315B818B88091C301012F31
:10558000017010FF04C09091BE0194B904C014B81A
:105590009091C401892B87B987E080937A0080E4D9
:1055A00080937B008091C701806C80937C0084E4B1
:1055B00080BF0E94333CA895109280001092810019
:1055C000109285001092840087E286BB9091C301FF
:1055D000E12FE47012FF0BC098B980E10000815008
:1055E000E9F78091810081608093810006C08091FD
:1055F000810081608093810098B980E090E031E083
:1056000026B325FD09C020FFFBCF36BB01968034B1
:105610009105B1F710E001C013E01092810030E273
:1056200036BB40918600509187006091BD0130915A
:10563000BE01362B34B917B8609184007091850093
:105640004617570728F420FF03C021E026BB019628
:1056500027E920937A00112309F483CF60E070E0FA
:10566000A0E0B0E0DC0199278827482B592B6A2B52
:105670007B2BEE2331F0415C5F4F6F4F7F4F83E018
:1056800001C084E0002311F08D5F01C08F5F90E0C6
:10569000A0E0B0E084179507A607B70738F49A0191
:1056A000AB01281B390B4A0B5B0B03C020E030E039
:1056B000A901A1E7B2E00E94253F6B5F7F4F8F4FAA
:1056C0009F4F2AE030E040E050E00E94C83E28832F
:1056D00039834A835B83002331F0223E3440410505
:1056E000510540F005C0253631054105510510F042
:1056F000812F01C082E0DF91CF911F910F9108951A
:10570000A4E0B0E0E6E8FBE20C94323F1092D40152
:105710001092D5011092D6011092D7011092D801A3
:10572000009709F41AC16C01FC01638174818581C1
:105730009681E12C00ED17E020E030E042810E94EC
:105740001D0F87FF0AC140E0F601618180810E9440
:10575000F31865E0CE0101960E94AB2A833059F41C
:1057600089819A81AB81BC8189389341A105B105BA
:1057700020F015E023C08111F0C061E0CE01019658
:105780000E94AB2A8230B1F4F60163817481858175
:105790009681E12C08E210E020E030E042810E9496
:1057A0001D0F87FFDAC062E0CE0101960E94AB2A8E
:1057B00012E001C011E0833009F0CFC0F60163812F
:1057C0007481858196812FEF42810E94840F4B0165
:1057D0005C018091CD019091CE010596E091C901C7
:1057E000F091CA01C090CB01D090CC01CE0EDF1E4B
:1057F0006AE070E00E94A03EC60ED71EB601680D9A
:10580000791D10FF16C06057754EE057F54E89811F
:105810009A81AB81BC81803727E19207A105B10550
:10582000A0F0843D9043A105B10590F027E330E05E
:1058300017C089819A818C3D25E0920760F08838F5
:10584000934160F02EEC3FEF0BC020E530E008C044
:105850002DE230E005C02AE030E002C02BEF3FEF40
:105860004091D10180919A0190919B01840F911DEB
:1058700047FD9A958901330F220B330BA90198013B
:10588000280F391F411D511D6B01E12CF12CC7015F
:10589000B6010E94763E9F0140E050E00E94C83E63
:1058A000CA01B90125E030E040E050E00E94C83E66
:1058B00063E0C9010E94621A5C0129813A814B812F
:1058C0005C8117EF9AE0492E512C612C712C213A02
:1058D00086E8380781E04807510560F0CA01B90140
:1058E0006B5F7F4F8F4F9F4FA30192010E94C83E75
:1058F0001F5FEDCFD5010E94253F9B01AC018AE0DF
:10590000882E912CA12CB12C213AE6E83E07E1E04B
:105910004E07510560F0CA01B9016B5F7F4F8F4F91
:105920009F4FA50194010E94C83E1F5FEDCFC701A4
:10593000B6010E94763E1093D40120E137E240E0A8
:1059400050E00E94C83E2093D5013093D601409389
:10595000D7015093D80181E001C080E02496E0E1B6
:105960000C944E3FA1E0B0E0E8EBFCE20C94403F29
:1059700089830E945B398981882319F060E08BE27A
:1059800002C063E78DE24DE20E94A20960E088E870
:1059900093E10E9403110E945B392196E2E00C948E
:1059A0005C3F8F929F92AF92BF92CF92DF92EF9225
:1059B000FF92CF93DF936C0180E00E94C3110E949D
:1059C0008B3A84E491E00E946739E12CF12C28E4C1
:1059D00040E0C701B6010E94F80F8AE70E94E03A52
:1059E00080E00E94B22C18B885E087B984E084B9C1
:1059F00015B860E072E18AE790E0A70196010E9485
:105A0000C83E69017A01213884E838078EE14807E9
:105A1000510530F0CD2CDE2CEF2CFF2484E00FC09C
:105A200021383E434105510548F036E0F694E794AD
:105A3000D794C7943A95D1F783E001C081E01092E2
:105A400096011092810093E29093800090E19093F0
:105A500081001092850010928400D0928900C0923B
:105A6000880096013695279530938B0020938A0005
:105A7000806180938100C2E3D1E024E6822E912CE4
:105A8000A12CB12C0E945B398C2F90E0A0E0B0E0FB
:105A900025E240E0BC01CD010E94F80FD33020F494
:105AA00084EF91E00E94D61360E080E090E00E94D5
:105AB0000311D82F813079F482E390E00E94D6134D
:105AC00060E088EC90E00E940311811114C0C036A0
:105AD00098F4CB5F11C0833021F4C43668F4CF5FF3
