:100000000C9404080C9416080C9416080C9416080A
:100010000C9416080C948C2A0C9416080C942E0F31
:100020000C9416080C9416080C94C7200C94702A93
:100030000C947E2A0C94A120F9C70000F7C7000099
:100040000C944A2AF3C70000F1C70000EFC7000074
:10005000EDC700000C942F0FE9C70000E7C70000B0
:10006000E5C70000E3C70000E62FF72F903009F442
:100070009395E5B8C4B8B7EFB0937A00A5E0A09324
:100080007B00A8E0A093810010928000AFEFA093C6
:100090008500A0938400A6E0A093360010928B0008
:1000A00010928A00B6E0AFE7A91B51E0392F363035
:1000B0002AF0A058B94F53953650F9CFB093890024
:1000C000A0938800A0917A00A4FFFCCFB7EBB09377
:1000D0007A00A2E0A0936F00A9E0A093810062E003
:1000E000A0E0A0937B00A1E0A09353008895E5B821
:1000F000C4B884FF19C0A3E4AA95F1F7EF93FF9366
:10010000E7B1F8B1A4E0C2FCA2E0C0FCA1E0BF2FBF
:10011000BA2BAE2BB8B904B9A7B9E7B9F8B9FF91B2
:10012000EF910AC00C947300A7E40000AA95F1F7C0
:1001300025B9E5B8000004B9A0918400A09185001C
:10014000B0918900A395AB1768F7A0917A00A4FF3E
:10015000F3CFB7EBB0937A006A9571F760917800AE
:1001600070917900308186FD630F6193308186FD47
:10017000731F80FF7193652F4A9579F710926F0076
:1001800010928100B7E0B0937A000895D601CD01B6
:10019000C4011008407E01013E01013E01013E0103
:1001A000017E404018000720080808F800000020E1
:1001B00060A03FA06020020202FF020202101010A5
:1001C0001F0000000708FFDBBDB5B5CBFF0708FF28
:1001D000BB9DADADB3FF0708FFFFF7FB81FFFF102D
:1001E000100508F878385888091003081C3E7F0D60
:1001F000080710FF818181F1E1C1FF404040474382
:10020000410D080110FFFF11080310F1E1C1474340
:10021000410E0008202121122060E0E0E0FEFE04F3
:1002200002010001037F7F21C2C4C4C04094840046
:1002300007030102040E080210FEFE7F7F0000008B
:1002400000110005202060E0E0E00201000103C28F
:10025000C4C4C040070301020401041001020448A1
:1002600065206F9F9A619B9892706F93619D2100AA
:10027000B903870358032E030703E402C302A40251
:1002800088020000140029003E005300690080002D
:100290009700AE00C600DF00F80012012D014901F1
:1002A00065018201A001BE01DE01FF0121024402BD
:1002B00068028E02B502DE0209033503640394036B
:1002C000C803FE0337047304B404F904430593051B
:1002D000EA054906B3062907AE074808FF08DE0904
:1002E000FD0A930C480F991B00000000000000005D
:1002F00000000000000000001E2121211200807F6C
:100300000000007E4A4A4A34000000000000FC4021
:100310002010080402010000000101010101010197
:100320000101010101017F0488D0E0F0F800000024
:10033000000000000000000000000000000000FCC1
:1003400094948400000102FC000000000000000002
:10035000000000001E21212112E0C0804020100F6B
:10036000000000C020202040000000FC00009E9EF5
:100370000403030303020000002020232425252377
:100380002020203F00007B7B2142840480C00000AD
:10039000000000000000000000000000FC949484B5
:1003A00000040607070708F0000000000000000036
:1003B0000000000000803F2121120C00000000FF1F
:1003C000000000F0084848C80000FE0000E78181F6
:1003D00081C1E1F1818181010020202021212120A2
:1003E00020203F0000F340404041434740407FC051
:1003F0000000000000000000000000000000489421
:1004000094946400000000FF000000000000000061
:1004100000000000000000003F2121120C0000FF3E
:10042000000000F0084848D0000000000000FEFE78
:10043000040404040404040700080808090909085E
:10044000087F3E1C08087F7F20202020202020E0FD
:10045000000000000000000000000000000000009C
:1004600048949494640000FF000000000000000025
:10047000000000FF003C0A090A3C0022312929261D
:10048000000082868E9EBEFEFEBEDEEFF6FAFEFE07
:10049000FAF2E2C28200000008080804027984A48B
:1004A000A46800FF00000000000000000000000041
:1004B0000000000000000000000000FF0000F02825
:1004C0002428F0001008FC000000000000000000DC
:1004D0000000003C0A090A3C00FF00000000000088
:1004E000000000000000000000000000040C1C3CA4
:1004F0007CFF7C3C1C0C040000000000009EA1A9B5
:10050000A99A804323130B0703FF03030303030389
:10051000000000000000000000000078848484488F
:1005200000FF000000000000000000F00804E211DD
:100530000909090909090909091121C2040810E07A
:1005400000000001020404070000000000804020B9
:10055000108844231008040300000000000000007D
:10056000000000FE0100FC0201000000000000008D
:1005700000000000000000000000007949497900F7
:10058000000000000000000080E020202020E0802B
:10059000000302020202030080F8F0E0C080F8804D
:1005A000000F070301000F0080F880C0E0F0F88022
:1005B000000F000103070F0080F8F80000F8F88032
:1005C000000F0F00000F0F00E01008080810E000F7
:1005D00019121E001E12190000F8000000E0200091
:1005E000403F0810081F1000101010101010F0806D
:1005F000040404040404070080F01010101010100C
:1006000000070404040404048080808080808080CB
:10061000000000000000000080000000000000005A
:10062000070808070808070800000000000000800D
:10063000080708080708080700F008048448300085
:10064000403F000810110E000000000000000000F4
:10065000000000000000000000000000000000009A
:10066000000000000000000000000000000000008A
:10067000000000000000000000000000000000007A
:1006800000000000000000000000F80402FE02006C
:1006900070181710101F700002FE020002FE020008
:1006A000101F1010105F300002FE02F002FE020068
:1006B000101F101F105F30000000E01008F8080045
:1006C00070181710101F7000804028F82840800014
:1006D0000708507F5008070008F8080008F80800CD
:1006E000101F1010105F300008F808C008F808004C
:1006F000101F101F105F30000000000000000000FD
:1007000000000000000000000000000000000000E9
:1007100000000000000000000000000000000000D9
:1007200000000000000000000000000000000000C9
:1007300000000000000000000000000000000000B9
:1007400000000000000000000000000000000000A9
:100750000000000000000000000000000000000099
:100760000000000000000000000000000000000089
:100770000000000000000000000000000000000079
:100780000000000000000000000000000000000069
:100790000000000000000000000000FE000000005B
:1007A000000000370000000000160E0000160E00CA
:1007B00000000000000000000020F82020F82000C9
:1007C00000020F02020F0200102844FE84081000ED
:1007D0000304081F08050200182424984020100074
:1007E0000402010C12120C0018A4E2A2128C800068
:1007F0000708101011120508000000160E00000076
:1008000000000000000000000000F00804020000EA
:1008100000000304081000000000020408F00000BB
:10082000000010080403000090A0C0F8C0A09000D1
:100830000402010F01020400808080F080808000AB
:1008400000000007000000000000000000000000A1
:100850000000005838000000808080808080800088
:100860000000000000000000000000000000000088
:100870000000001818000000000000804020100058
:100880000402010000000000F80402020204F80063
:100890000708101010080700000804FE02000000FE
:1008A0000010101F101000001804020282443800CB
:1008B0001814121110101C000E024262528A060017
:1008C000060810101008070080403E0000FC0000E1
:1008D00003020202121F12007E2212121222C6000E
:1008E0000408101010080700F84422121224C00057
:1008F00007081010100807000E0282C262321E00A4
:1009000000001F000000000018A4424242A418008A
:100910000708101010080700F80402020284F8000B
:10092000000912121108070000000030300000001A
:100930000000000C0C00000000000030300000003F
:100940000000002C1C000000008040201008040063
:1009500000000102040810000040404040404000F8
:10096000000202020202020000040810204080007F
:10097000001008040201000018040202028478003A
:100980000000003601000000F008A4A4C408F00034
:1009900007081312110A090000F0080402FE020001
:1009A000101F1202121F100002FE424242A4180041
:1009B000101F101010080700F804020202041E00A5
:1009C000070810101008060002FE02020204F800D8
:1009D000101F10101008070002FE4242F2020E0023
:1009E000101F101011101C0002FE4242F2020E00F5
:1009F000101F101001000000F804028282849E0083
:100A00000708101108041F0002FE424042FE0200C7
:100A1000101F1000101F1000000202FE0202000052
:100A20000010101F1010000000000202FE02020061
:100A30000C1010100F00000002FEC2300806020069
:100A4000101F10030418100002FE02000000000036
:100A5000101F101010101E0002FE32C032FE0200E5
:100A6000101F1001101F100002FE1AE002FE02000B
:100A7000101F1000131F1000F80402020204F800F7
:100A8000070810101008070002FE02020284780016
:100A9000101F110101000000F80402020204F80016
:100AA0000708101012140B1002FE828282443800D4
:100AB000101F1001021C10001824424242841E0024
:100AC00006081010100807000E0202FE02020E00B7
:100AD0000010101F1010000002FE020002FE0200B3
:100AE000000F1010100F000002FE020002FE0200B4
:100AF00000030E180E03000002FE02F002FE0200C8
:100B000000071C0F1C070000021EF240F21E02002C
:100B1000101F1100111F100002FE820082FE020051
:100B20000000111F110000000E02824222120E006E
:100B30001E11101010101E0000FE02020202000022
:100B4000003F2020202000000810204080000000EE
:100B500000000000000102000002020202FE00008C
:100B600000202020203F000010080402040810008C
:100B70000000000000000000000000000000000075
:100B800020202020202020000000000E1600000061
:100B90000000000000000000009048484890E0007D
:100BA0000708101008041F0002FE12080810E000D9
:100BB000101F081010080700E0100808081038007F
:100BC0000708101010080600E010080812FE0200C6
:100BD00007081010081F1000E09088888890E00037
:100BE000070810101008040040F8444202040800EE
:100BF000101F101000000000E010080810F8080096
:100C000003244848443F000002FE201008F0000082
:100C1000101F1000101F100000080BFB0000000048
:100C20000010101F10100000000008080BFB00004F
:100C300000304040403F000002FE80403008180075
:100C4000101F11020408180000000202FE0000003C
:100C5000000010101F10100008F808F008F0000045
:100C6000101F001F001F100008F8100808F00000F7
:100C7000101F1000101F1000E01008080810E000FE
:100C8000070810101008070008F810080810E00006
:100C9000407F481010080700E010080810F808000E
:100CA00007081010487F400008F82010080870005E
:100CB000101F1000000000002050888888103800A5
:100CC00006081010100906002020FE202000000059
:100CD00000000F1010100C0008F8080008F80800B9
:100CE000000F1010081F100008F8080008F808008E
:100CF00000030E180E03000008F808C008F80800EA
:100D0000000F180F180F00000838E080E0380800C6
:100D1000101F0100011F100008F8080008F8080063
:100D200000274848443F0000380808884828180031
:100D30001C12111010101E00804038040202000026
:100D400000010E1020200000000000FE0000000046
:100D50000000003F00000000000202043840800054
:100D6000002020100E0100000080F0E0C080000094
:100D700000000703010000000080C0E0F0800000D8
:100D8000000001030700000002FE4242428E000004
:100D9000101F10101008070002FE020202020E00CF
:100DA000101F1000000000000BFB88E80B3B000048
:100DB000101F101310101C0002BEC0FEC0BE0200A7
:100DC000101F001F001F10001E04024242A4180042
:100DD000060810101008070002FE00E018FE0200CE
:100DE000101F1300101F100004FC01C231FC04008E
:100DF000101F1601101F100000F0080402FE020070
:100E0000101F0000101F100002FE020202FE02006E
:100E1000101F1000101F100002FE020002FE020050
:100E200000091212110F0000F0080AFE0A08F00073
:100E30000102121F1202010002FE020002FE020065
:100E400000010202111F100002FE02F002FE020069
:100E5000101F101F101F10000E02FE120808F000D5
:100E600010101F101008070002FE1208F000FE000C
:100E7000101F10100F001F000E0402F24244F80071
:100E8000060810111008070002FE40FC0202FC00D8
:100E9000101F000F10100F003844828282FE0200E3
:100EA000101C0201101F1000F04824242242800070
:100EB000070810101008070008F8888888502000DC
:100EC000101F10101009060008F808080838000064
:100ED000101F100000000000E0938B888B93E0004F
:100EE0000708101010080400087880F880780800BF
:100EF000101F011F011F10003810088888502000A3
:100F0000060810101009060008F8088068F80800A4
:100F1000101F1601101F100008F9028462F9080062
:100F2000101F1601101F100008F88040300818002C
:100F3000101F0001021C100000E0100808F8080053
:100F4000101F0000101F100008F8E880E8F80800E3
:100F5000101F1003101F100008F8888088F8080080
:100F6000101F1000101F100008F8080808F80800EB
:100F7000101F1000101F1000380808F8080838006B
:100F80000000101F1000000008F8080008F8080012
:100F900000010202111F100008F808C008F808003C
:100FA000101F101F101F10003808F88840408000E4
:100FB00010101F101008070008F888408000F80083
:100FC000101F10100F001F0008F88840408000001C
:100FD000101F101010080700381008C88890E00093
:100FE000060810111008070008F880F00808F00043
:100FF000101F000F10100F00E010080808F808007C
:1010000000110A06121F100011241FBECFEFD8E0F6
:10101000DEBFCDBF21E0A0E0B1E001C01D92AA3C3F
:10102000B207E1F70E94D1370C94D03F0C94000036
:101030005D98559A80FD599A80FF5998519A539A14
:101040005A9867FD5B9A67FF5B985A9A5A9866FDB3
:101050005B9A66FF5B985A9A5A9865FD5B9A65FFA2
:101060005B985A9A5A9864FD5B9A64FF5B985A9A07
:101070005A9863FD5B9A63FF5B985A9A5A9862FD8F
:101080005B9A62FF5B985A9A5A9861FD5B9A61FF7E
:101090005B985A9A5A9860FD5B9A60FF5B985A9ADF
:1010A0005D9A5A985B980895609348018093040173
:1010B00086958093B101660F660F660F60930F01EE
:1010C00008951092B10160E080E0EECF089581E0D4
:1010D0008093B10160E082E0E7CF089582E08093E1
:1010E000B10160E084E0E0CF089583E08093B10136
:1010F00060E086E0D9CF0895809148018093010196
:101100008091B10180930301089580910301609162
:101110000101880FC9CF0895CF93C82F692F81E0AF
:1011200087DF6C2F81E084DFCF910895682F80E006
:101130007FCF0895CF93DF938AE2F8DF80E090E0DD
:10114000EBDF80EA90E0E8DF8BE2F0DF80E090E028
:10115000E3DF80E890E0E0DF8CE2E8DFC0E0A89524
:10116000D0EA8091260190912701D6DFD150C9F7AE
:10117000CF5FC038A1F7A5DFDF91CF910895CF935E
:10118000DF9358985A985B985D98509A529A539A60
:10119000559A5ED45D9A559A5998519A84E160D4D3
:1011A000589A84E15DD48AE05BD481E1BFDF84E0BA
:1011B00057D486E2BBDF64E081E03ADF81EBB6DF43
:1011C0006EE081E035DF64E181E032DF80ECAEDFAC
:1011D00080E09EE0A1DF81ECA9DF65E081E028DF0F
:1011E00085ECA4DF80E498E397DF8AE39FDF65E086
:1011F00081E01EDF86E39ADF86E693E00E94A23F4D
:10120000C6E2D1E0888385E693E00E94A23F89830D
:1012100084E693E00E94A23FC0E6D1E0888383E6A3
:1012200093E00E94A23F89836CE381E001DF84EBBD
:101230007DDF60E081E0FCDE7DDF89E277DF8AE050
:101240000FD4DF91CF9108950895582F28E030E012
:1012500090E841E080E0642F652309F0892B440F7A
:10126000969521503109B9F70895A4E0B0E0EBE379
:10127000F9E00C940F3F2C01F42E10E0C62ED12C77
:10128000C601800F911F813A91050CF089C08E2D07
:1012900090E0AC014F0D511D413851050CF080C05C
:1012A000EA94EF0CE7FE02C06FE7E62E322F3270B1
:1012B000398321FF0FC0019753E0959587955A9583
:1012C000E1F7809FA001819F500D909F500D112448
:1012D000440E551E21702A83380181E0681A710876
:1012E000EF1408F45DC01C821B828F2D90E027E76D
:1012F000A22EB12CA81AB90A3EE7832E912C881A87
:10130000990AEB81FC81E017F10709F43EC08BE2FA
:101310000DDFC50101DFC401FFDE8AE207DF2B809C
:101320003C802C0C3D1CC101F7DEC101F5DE8CE2D6
:10133000FDDE3A81332331F0F3018B819C81E81B80
:10134000F90B02C0EB81FC81E40DF51D349039816D
:10135000332319F0832D79DF382E48E0242E37FE11
:1013600005C0809160019091610104C080912601C7
:1013700090912701D1DE330C2A942110F0CF8B817C
:101380009C8101969C838B83BCCF3981332319F0D8
:10139000401A510A02C0400E511E88E0F80EA0CF3C
:1013A0002496E2E10C942B3FEF920F93482F282FC5
:1013B0002F7080E6289F90011124C90188519D4F0C
:1013C000242F207344FF02C038E001C038E5309379
:1013D0001001203218F01092000108C020E2209382
:1013E0000001209110012D5D2093100120E2E22EDA
:1013F00008E120E0409100016091100136DF0F917B
:10140000EF900895EF920F93262FFC01649131968F
:101410004491319604913196E49030910001430F4C
:1014200030911001630F049620DF0F91EF90089523
:1014300060E0E8CF0895EF920F93909148019F5F8D
:101440009093480140910401440F440F440F20E160
:10145000829FC001112420E1E22E08E020E060918B
:101460000F0188579A4F01DF80910F01885F8093A9
:101470000F010F91EF9008958F5CDDCF089580E20A
:10148000DACF0895A1E0B0E0E8E4FAE00C941F3F61
:1014900018162CF48983F3DF89818150F9CF2196C6
:1014A000E2E00C943B3F9091480184E1891BEACF34
:1014B0000895A1E0B0E0EFE5FAE00C941F3F8983C6
:1014C000F2DF9091B1019F5F9093B10189819830D3
:1014D00038F097E09093B10191E090934B0102C0F6
:1014E00010924B019091B101682F892F880FDCDD9C
:1014F0002196E2E00C943B3FDCDF0BC40895E1DD74
:10150000D2DFDFCD0895E3DDCEDFE1CD08958DE3B9
:1015100092CF0895CF93DF93EC018991882311F046
:101520008ADFFBCFDF91CF910895CF93DF93EC015A
:10153000FE018491982F9F7719F07DDF2196F8CFD7
:10154000DF91CF910895CF93DF93EC01CE010E94FC
:10155000A23F982F9F7719F06EDF2196F7CFDF918A
:10156000CF910895EF920F93FC0104913196E4908E
:1015700002967BDE0F91EF9008950F9383EB91E03D
:10158000E2DF409195014D3F64F4609183017091D9
:101590008401809185019091860103E026E400D1C9
:1015A00002C08FE348DF0F910895909124019F704E
:1015B000923071F4A1DF8CE790E0C5DFE091490142
:1015C000F0914A0122E044E06FEF84819581D1C11E
:1015D000089597FF09C08F939F938DE22CDF9F9111
:1015E0008F91909581959F4F6EE271E04AE050E0B7
:1015F0000E946F3F8FCF0895ECDF01C0EADF3FCF3D
:101600000895EF92FF920F931F93182F062FF42E39
:1016100085E991E098DFEE24E0914901F0914A01DB
:101620008685E81611F4812F09C08485E81611F427
:10163000802F04C08585E81611F48F2DFCDEE3941D
:101640008E2D833049F71F910F91FF90EF900895F1
:10165000EF92FF920F931F93182F062FF42E80E026
:101660004BDF0DDF8BE991E06EDF4F2D602F812F77
:10167000C8DF1F910F91FF90EF900895682F80E0D1
:1016800092E0662309F491E0623009F481E0089564
:101690000F93082FE2EBF1E0880F880FE80FF11DA0
:1016A0006081718182819381643671058105910524
:1016B00070F42091020127FD0AC0802FDFDF692F1F
:1016C0000E9431266EEF23E044E053D104C04FEF77
:1016D00004E024E065D0D3DE0F910895863058F4FD
:1016E000E5EAF1E0E80FF11DE80FF11D808191813D
:1016F00063E04AD1C4CE08951F93182F80917E01D4
:10170000882319F0BCDE80E096DEE1DC8CE891E015
:101710001ADF812F82958F70E1DF812F8F70DEDFDE
:101720001F9108958091110182958F7019D0809139
:10173000110183701CD080911101DECF0895E9E979
:10174000F1E0E80FF11D0895CF93F9DF9081C68194
:10175000C91710F405D001C013D091DECF910895C0
:10176000EEDF8F93808188DE8F9101C008958F9383
:1017700084E591E0E8DE8F91E2DF86817DCE0895F9
:10178000DEDF8F93868178DE8F9101C008958F937D
:1017900080E591E0D8DE8F91D2DF80816DCE089513
:1017A000AEE0B0E0E6EDFBE00C940F3F142F622EAC
:1017B000702E6B017C010F7080E389838A838B8399
:1017C0008C838D838E83F7FE0BC08DE234DEF09424
:1017D000E094D094C094C11CD11CE11CF11C04C045
:1017E00075FE02C08BE227DE033061F1043099F010
:1017F0000530C1F00630F1F074E6872E912CA12C53
:10180000B12C073029F530E8832E36E9932E38E9DC
:10181000A32EB12C1DC060E1862E67E2962EA12C6E
:10182000B12C16C050EA852E56E8952EAA24A39412
:10183000B12C0EC040E4842E42E4942E4FE0A42E3E
:10184000B12C06C088EE882E83E0982EA12CB12CF6
:101850002AE0222E312C412C512CC814D904EA0440
:10186000FB0470F0C701B6016B5F7F4F8F4F9F4F36
:10187000A20191010E94273E69017A011F5FEDCF0D
:1018800081E1810F9BEA899F812D1124A82EA694C6
:1018900086E0811B899F112D11241695912F990F98
:1018A000190F811B182F4E0187E0880E911C2AE02A
:1018B000A401C701B6010E944E3FF401019000202F
:1018C000E9F731977F01E818F9089E2C6701DD24BC
:1018D000812F90E004968C159D0514F4A3941D5F50
:1018E0008A2D90E08C5C9F4F0E94A23FA82E74FE30
:1018F00004C0901610F40E1901C000E09E2C911A3D
:10190000900E191424F08EE296DD012F0E1911119C
:1019100002C098EF992E812C10E0C00ED11EE92C48
:10192000092C000CFF08482D50E04C155D05ACF467
:10193000FA013696E01BF10B81E090E08C0F9D1FC1
:10194000E80FF91F808177DD8394882D90E08E1554
:101950009F0549F78EE26FDDE6CFAA2011F08A2DB0
:101960006ADD662011F0862D66DD2E96E2E10C948C
:101970002B3F0F93362FBC0180E090E0022F242FE5
:10198000432F0EDF0F9108950F93062FBC0180E0C7
:1019900090E026E54DEF04DF0F9108950F93042F9B
:1019A00028E440E0FDDE8AE746DD69DD0F91089519
:1019B000E82FF0E0EE0FFF1FE457FE4FA591B49122
:1019C00090910001490F90911001690F20E0CD0125
:1019D000C9CD0895CF93DF93C82FD62FE091490149
:1019E000F0914A0148E16EE18685E2DFE09149012C
:1019F000F0914A014D2F6C2F8485DADFE091490187
:101A0000F0914A0140E06EE18585D2DFDF91CF9110
:101A10000895089503D002D001D000D000D003D0A3
:101A200002D001D000D000D003D002D001D000D02D
:101A300000D0A89503D002D001D000D000D003D0B0
:101A400002D001D000D000D003D002D001D000D00D
:101A500000D003D002D001D000D000D00000089503
:101A600090E0893C28F0885C48EC849FC0011124F8
:101A7000009709F4089520918100277019F0D9DFAB
:101A80000197F6CF8130910519F002973CE803C029
:101A90003EE380E090E02091B200230F2093B3005A
:101AA00042E04093700027E023BF889526E023BFE3
:101AB00010927000A895DCCF8F9384E0D1DF07C02F
:101AC0008F9382E0CDDF03C08F9381E0C9DF8F91D8
:101AD0001F93182F106410937C00E12FE078809101
:101AE0003901E81759F0E0933901ADDF8FE98093B0
:101AF0007A0083E083BF889582E083BF20E030E0F6
:101B0000A901E0E01FC08FE980937A0083E083BFE2
:101B1000889582E083BF6091780070917900260FEC
:101B2000371F411D511DE43061F480913B0180302D
:101B300041F084E02030380720F417FD02C010681F
:101B4000CACFEF5F80913801E817E8F260913C015D
:101B500070913D0117FF04C060913A0170913B0103
:101B600080E090E00E94E53D2FEF33E040E050E060
:101B70000E94273EB901CA012091380130E040E0BF
:101B800050E00E94273EC9011F9108959B01281B28
:101B9000390B50F0C9010895BC0180913C0190912E
:101BA0003D016817790718F4861B970B089580E0AC
:101BB00090E0089599B193FB992790F94999926023
:101BC00080911C01843050F08EE080931801909336
:101BD000190110921D0181E080931C0180911C016C
:101BE000E82FF0E0E85EFE4F3081391729F19111BE
:101BF0001AC0E3E0E80FE37020911D01323041F498
:101C0000F0E0E85EFE4F3081333069F42F5F09C0A9
:101C1000313049F4F0E0E85EFE4F3081333019F4A2
:101C2000215020931D01E1E0E80FE370E0931C01D7
:101C3000F0E0E85EFE4F908380911D0187FD819565
:101C400080931E010895A0E0B0E0E9E2FEE00C946C
:101C5000183FE82ED92E53985198F0DE10921D01AE
:101C6000E0911C01F0E03196E370FF27E85EFE4F43
:101C700080EF8083C5E6D9E19DDF4F9905C0E2DEA4
:101C8000D150D1F7C150B9F7CE2DDD2DF12C15E58E
:101C900000E0BB24B394D7FD36C082E3C82E8ADFB0
:101CA000D1DECA94C110FBCF110F4F9B1F5F1F7372
:101CB0001F3349F4011103C0CE2DDD2D04E00F5F69
:101CC000083C28F020C0111102C001111CC0A895C9
:101CD0001C161D0624F42A9711F4CFEFDFEF809134
:101CE0001E01882339F0F39480917F01811102C095
:101CF000B0927F0184E18F1570F680911D018111F2
:101D000002C0F12CC8CF802FCDB7DEB7E9E00C942C
:101D1000343FCF93F1D9C82F80914B01882301F133
:101D2000813051F4C73041F463E18EE0BDD98BE2DC
:101D300082DB63E18EE0B8D980E49FE184DF81112A
:101D400004C080911E018111F7CFC73041F480910A
:101D50004B01813021F460E08EE0A6D9A4DBD5D917
:101D6000CF9108958FE893E00E94A23F382F80E939
:101D700093E00E94A23F20914001230F3091410146
:101D8000381F209321013093220183E0283E380739
:101D900020F0C901885E934002C080E090E062E3D9
:101DA00070E00E94003E683008F067E0E0E7F2E093
:101DB000E60FF11DE60FF11D4591559125913591E5
:101DC00062E3681B421B530B649FC001659F900D2B
:101DD0001124499662E370E00E94003E620F731F77
:101DE000709382016093810181E993E00E94A23F98
:101DF000992787FD90956091400170914101860F70
:101E0000971F90933B0180933A0190937D018093BB
:101E10007C010895CF93DF9324E130E0B9010E9463
:101E2000003EDC01E2E8F2E0E60FF71FE60FF71FE5
:101E3000C591D591459155914C1B5D0B4A9FC001B1
:101E40004B9F900D5A9F900D1124B9010E94003EA6
:101E50006C0F7D1FCB01DF91CF91089518951895D8
:101E60000F931F93CF93DF9340912301C0914901BA
:101E7000D0914A01A9E9B1E020E030E0822F241797
:101E8000C0F489015D912F5F3F4F9C855917B1F3D5
:101E9000B90167567E4FFB015581591779F3F80157
:101EA000EE0FFF1FEB55FE4F20813181293E33405D
:101EB00008F084E1DF91CF911F910F910895109266
:101EC0002501109223011092770110925B0110926C
:101ED00024011092470110927E01E2E6F1E01082A7
:101EE00011821282E3E8F1E0108A82E0818B109285
:101EF000020117861686148215821682178281EFD8
:101F0000838B08955E9889DD80E090E09CCE0895F3
:101F1000A1E0B0E0EEE8FFE00C941D3F17B818B860
:101F2000E82FF0E0E75AFD4F949195B9262F281B32
:101F3000E20FF11D27FDFA95E491E92BE4B96983DD
:101F4000C7DD8C016981862FC3DDAC0120913C0186
:101F500030913D0136952795B90163507109C8014B
:101F60004E966817790770F4255E3F4F02171307E6
:101F700048F4CA014E966817790720F481E04217A9
:101F8000530708F080E014B82196E4E00C94393F40
:101F9000CF9361E080E0BCDFC82F62E080E0B8DF73
:101FA000C80F62E081E0B4DF8C0FCF910895A3E108
:101FB000B0E0EDEDFFE00C940F3FB82E109225013C
:101FC000807FA9F4E5DF833009F0C0C3B3D88EE881
:101FD00092E0B9DA7CD88FE32EDA80ED97E033DE39
:101FE0008B30C0F4A7D882E291E0ADDAAFC306E946
:101FF00010E0A0D881EE91E0A6DACADF833021F4A8
:102000001F5F143010F006C010E088E229DD015097
:1020100081F763C05CD80E94282189EC90E093DAB4
:1020200060E089E693E00E94AF3F60E08AE693E0DB
:102030000E94AF3F60E088E693E00E94AF3F60E01F
:1020400082E00E9431266C019A83898361E082E0FC
:102050000E9431267C019C838B8360E081E00E949A
:1020600031268C019E838D8323E040E26EEFC60112
:1020700080DC23E040E26EEFC7017BDC23E044E03C
:102080006EEFC80176DC2AE5C216D10424F084E1A3
:1020900090E09A838983698189E693E00E94AF3F4B
:1020A0008AE5E816F10424F084E190E09C838B83B8
:1020B0006B818AE693E00E94AF3F0A35110524F058
:1020C00084E190E09E838D836D8188E693E00E9499
:1020D000AF3F82E080934B011CDEEB2DEF70EF876A
:1020E000E13011F018E771C101E010E068EB862ED5
:1020F00062ED962E67E4A62EB12C72E0F72EE8E092
:10210000EE2EFCE02F2EA4EC4A2EA6E35A2E612CD4
:10211000712CC12C302E50E2D52EF5D9F0D984E5A2
:102120008AD9C80161DAABD901301105B9F48CEF55
:1021300090E009DA64E0809140019091410124DC53
:102140000E94670887EF90E0FED98091810190910D
:1021500082014ADA8EEB8093380172C0F2E03F12BE
:1021600042C020913C0130913D01A8E5BBE10E94B5
:10217000653EA30192010E94493E81E085B985E058
:1021800084B980E0288B398B4A8B5B8B95DC28895E
:1021900039894A895B89821B930B9A83898381E100
:1021A00084B980E0288B398B4A8B5B8B85DC28894E
:1021B00039894A895B89821B930B9C838B8384E0DA
:1021C00085B984E184B981E0288B398B4A8B5B8B9C
:1021D00073DC28893989821B930B9E838D8381EE62
:1021E00090E0B1D93AC0E3E03E122AC0F5B8FAE077
:1021F000F4B980E061DC20913C0130913D013695DD
:10220000279538872F83821B930B9A83898322E239
:1022100024B980E051DC2F813885821B930B9C838D
:102220008B83E5B888E284B981E046DC2F8138856C
:10223000821B930B9E838D8383ED90E084D924C011
:102240000430110551F484E892E07DD9A1DE8823A1
:1022500009F444C0B2E0CB2E41C005301105A1F411
:1022600015B8F4B880E028DC9A838983E4B881E06B
:1022700023DC9C838B83D4B882E01EDC9E838D8319
:1022800083EF90E060D96EC00630110539F5F4B8DF
:10229000F5B880E011DC20913C0130913D01821BBA
:1022A000930B9A838983E4B8E5B881E005DC20913B
:1022B0003C0130913D01821B930B9C838B83D4B8EE
:1022C000D5B882E0F9DB20913C0130913D01821BC1
:1022D000930B9E838D838FEE90E042C007301105F3
:1022E00009F040C020913C0130913D01A8E5BBE1DF
:1022F0000E94653EA50194010E94273EF5B8E3E0E7
:10230000E4B980E0288B398B4A8B5B8BD5DB28893D
:1023100039894A895B89821B930B9A838983E5B843
:1023200024B881E0288B398B4A8B5B8BC5DB2889ED
:1023300039894A895B89821B930B9C838B83D5B82F
:10234000F0E3F4B982E0288B398B4A8B5B8BB4DBEA
:1023500028893989821B930B9E838D838DEC90E0B5
:10236000F2D803C00130110569F00E946708898125
:102370009A812FD984D88B819C812BD980D88D814B
:102380009E8127D917B818B814B815B888EE93E00D
:102390005ADC0430110511F08B3028F4C39423E08B
:1023A0002C1508F0BACE88EE93E04DDC0F5F1F4F7E
:1023B0000830110509F0ADCE95CEA5D884E892E09D
:1023C000C2D884E64DDB115019F0E2DD8111F5CF62
:1023D0000E949A0882EC90E0B6D823E044E06FEFC8
:1023E00080913E0190913F01C4DA0E9467088BEB17
:1023F00090E0A9D823E044E06FEF809145019091EF
:102400004601B7DA82E080934B0183DC109225010C
:102410000E949A0887EB90E096D860E082E00E94E4
:10242000D01D80908B0190908C01A0908D01B09078
:102430008E019C868B8661E082E00E94D01DC09058
:102440008B01D0908C01E0908D01F0908E01DE86A2
:10245000CD8660E081E00E94D01D00918B0110913B
:102460008C011E830D8362E080E00E94D01D80916C
:102470008B0190918C019C838B8362E081E00E94B0
:10248000D01D80918B0190918C019A87898761E0A2
:1024900080E00E94D01D20918B0130918C013A8305
:1024A00029838F85813021F080914401823029F485
:1024B0002E5F3F4F38872F8304C038872F831092B9
:1024C0004401C4019BD8C60199D8B801110F880BEB
:1024D000990B03E026E444EF63D98E010F5F1F4F91
:1024E0006E01EFE0CE0ED11CF801819191910A9717
:1024F000853B9105D0F4EC15FD05B9F748E8E42ECD
:1025000043E0F42EF80160810E5F1F4F6E5EC7013D
:102510000E94AF3FFFEFEF1AFF0A0C151D0591F760
:102520000E94670888ED91E00ED882E080934B010D
:10253000F0DB0E946B342F85213029F0809144011B
:10254000823009F0EBC00E949A0880E00E943C0AA9
:102550008EE791E00E94A30A82E00E943C0A8CE28E
:1025600090E00E94A30A20E4F22E10E03AE0832ECD
:10257000912CA12CB12CA3DC1092250160E082E00B
:102580000E94D01D0091950160918301709184019A
:102590008091850190918601073F44F40F5FA5016A
:1025A00094010E94273ECA01B901F6CF009395011C
:1025B00060938301709384018093850190938601D9
:1025C000073F09F094C0DC01CB0180569109A109B5
:1025D000B10980399545A105B10508F088C0609121
:1025E000970170919801CB018B569F4F8B32914090
:1025F00008F07DC01F5F153008F47AC08FE893E0C3
:102600000E94BD3F0E949A0885E290E00E94A30AC2
:1026100080919701909198010E94E90AA3DB18B874
:1026200081E087B980E284B982E052DA853D934047
:10263000DCF714B810923B0110923A0182E048DABC
:102640008C0180917C0190917D0190933B0180935E
:102650003A0182E03DDA7C01EE0CFF1C10923B0156
:1026600010923A0182E034DAC0907C01D0907D0172
:10267000D0923B01C0923A01800F911F8C010E193C
:102680001F090E9467088EE190E00E94A30A81E979
:1026900093E00E94A23F93E0B92EB80E9601D801B4
:1026A0000E94743E97010F2C000C440B550B0E94A6
:1026B000493E1B2D120F612F81E993E00E94AF3F2D
:1026C000812F012E000C990B0E94E90A4BDB82E05E
:1026D00080934B011EDB1092440188E893E00E9436
:1026E000A23F682F8BE893E00E94AF3F17C010E035
:1026F0000E94670860918301709184018091850137
:102700009091860104E026E44091950149D80E9409
:10271000530A88E2A5D9FA94F1102DCF87E380936C
:10272000380180E00E948A370E949A0882E291E094
:102730000E94A30A0E94670886E792E00E94A30A0B
:102740001092250182E080934B01E3DA6396E2E187
:102750000C942B3F8091440181110DC088E893E0D7
:102760000E94A23F61E0680F8BE893E00E94AF3FB8
:1027700081E0809344010895A1E0B0E0E2ECF3E150
:102780000C941A3FE82FF0E0E45AFD4FE491E8B9C9
:10279000E7B915B8E62FF0E0E75AFD4FE491E4B948
:1027A00088E8E82E83E1F82EDE2EDD0C862F698383
:1027B00083D98C01D4B869818E159F0510F47801F6
:1027C000F5CF892BE1F00E9475088EE591E00E941B
:1027D000A30AD80120EA36E841E050E00E947A3EA0
:1027E00028E937EB40E050E00E94273EDA01C901BA
:1027F00022E041E467EFBDD817B818B814B82196A5
:10280000E7E00C94363F0F931F93CF93DF9385E05F
:102810005FD985E059D98C019C01AFE3B3E00E94F8
:10282000653E2EEC30E040E050E00E94273EE9019A
:10283000CA56DF4F10924201C43883E0D80750F4E3
:102840008CEC91E00E94A30A0E94530A81E08093DD
:10285000420123C08BED91E00E94A30A62E0CE0109
:1028600093D80E943F0A083F86E0180780F402339D
:10287000164050F48EEE92E00E94A30A0E94530A82
:102880008DECEED83FDB09C085EF92E002C088ED09
:1028900091E00E94A30A0E94530ADF91CF911F91F9
:1028A0000F910895AEE1B0E0E8E5F4E10C940F3F3C
:1028B000982E862E242EA895E62FF0E0E75AFD4F9D
:1028C000C490CE86CC0CC88E3396D490DB82E42F95
:1028D000F0E0E75AFD4FE490EE82EE0C3396F49070
:1028E000FF82E82FF0E0E75AFD4F3490032D000FF0
:1028F0000F87339614911983CE80C5B8FC2CDE84E3
:10290000FD28F4B817B918B9862FDED82C018C2D04
:102910008E2985B9DE28DB86D4B8882DD5D80E85DA
:1029200004B9882DD1D83C0114B883D815B8F4B8AF
:10293000882DCAD8B2012AD9AC011B8117B918B8A1
:10294000C328CC82C5B8C4B8892D4D8F5E8FBCD842
:1029500023D98C0115B86DD835B8892DB5D81CD9B7
:102960005C0134B8892DB0D817D96C01B501C80104
:102970000DD94D8D5E8D803221E0920728F44032D2
:1029800031E0530708F424C58A569F4F4C0D5D1D56
:102990004817590710F42501360120915B018091F9
:1029A000770190E0820F911D02974CF0213009F0E1
:1029B0000FC59091580180917401981309C5CE2CD0
:1029C000C328CD8604E74016510408F417C1C2019C
:1029D000880F991F44966816790608F00FC119816F
:1029E00017B918B9CB84C4B8882D6AD86C01822D68
:1029F0006FD88C01E5B8882D63D89601295A3D4FD0
:102A000018B82817390708F074C0FB80F7B8FD84A0
:102A1000F4B8F5B8822D54D888349F4028F085E06A
:102A20008093250182E204C085E08093250184E241
:102A300080932401D0925101C0925001B801C60187
:102A4000B0D890935701809356019601A0E1B7E268
:102A50000E94653E20911F013091200140E050E02E
:102A60000E94273E3093530120935201C88CEC28DA
:102A7000E4B815B8D980D7B8D8B8882D21D89093A4
:102A8000550180935401822D23D820915401309117
:102A90005501281B390B3093550120935401809127
:102AA00024018F70843009F48BC418B8FB80EF8048
:102AB000FE28F7B834B8FC80F5B8892D05D88C010C
:102AC0006BD86C01882D04D8E0902801F090290182
:102AD000BC01C80166D89C01D7010E94653E9601E1
:102AE00040E050E00E94273E309351012093500176
:102AF00067C40B8107B91D8514B915B9892D0E94CA
:102B0000600D6C01822D0E94680D8C0135B8892DF5
:102B10000E94600D895A9D4F8C159D0508F058C480
:102B2000F980F8B8F7B8822D0E94600D813D93407E
:102B300028F485E08093250182E304C085E080933A
:102B4000250184E380932401B601C8012AD890931B
:102B5000730180937201C6011FD89C01A0E1B7E206
:102B60000E94653E209128013091290140E050E00B
:102B70000E94273E30936F0120936E0118B8CB80DE
:102B8000C7B8DF84ED28E4B8E5B8892D0E94680D48
:102B90008C01822D0E94600DB80103D890937101C1
:102BA00080937001809124018F70843009F4E2C118
:102BB000F980EF80FE28F8B8F7B815B8FC80F4B8B3
:102BC000892D0E94640D7C01882D0E94680D6C0186
:102BD00000911F0110912001BC01C7010E94D10D7D
:102BE0009C01D8010E94653E960140E050E00E94A1
:102BF000273E30936D0120936C01BCC118B80B8146
:102C000007B935B81D8514B9892D0E94640D998BBB
:102C1000888B0E94CC0D8C01822D0E94680D9887B4
:102C20008F8393012C593F4F3A8F298F20173107FB
:102C3000B0F468016016710610F4C618D708209128
:102C400028013091290140E050E060E871EA83E01A
:102C50009CE10E94273ED6010E947A3E1DC0B3012E
:102C6000C8010E94D10D6C010C8104B9892D0E940C
:102C7000640D998B888B0E94CC0D8C01822D0E9453
:102C8000680D98878F83BC01C6010E94D10D9C01FD
:102C9000A4E6B0E00E94653ECF80D884960140E073
:102CA00050E00E94273E2C8B3D8B4E8B5F8B14B8DF
:102CB00015B8D980D8B8D7B881E00E94300DF4B8E3
:102CC000882D0E94640D8F359D4008F459C1CB8436
:102CD000C4B8882D0E94600D5C01822D0E94680D91
:102CE0009B8B8A8B892D0E94680D9C8F8B8FCA8845
:102CF000DB8821EDC21627E0D20608F4CEC0E5B885
:102D0000882D0E94600D8115944078F08AE08093B0
:102D100025016A897B898B8D9C8D0E94D10D9093B2
:102D20006D0180936C0181E01EC484E080932501D5
:102D30008DE0809324016A147B0430F46501C61889
:102D4000D708DA82C98202C0BA82A982C0901F0164
:102D5000D0902001E12CF12C60E871EA83E09CE145
:102D6000A70196010E94273EA981BA810E947A3E5E
:102D7000AA89BB899D0140E050E00E94273E8091D6
:102D80007701882369F08091680190916901A09191
:102D90006A01B0916B0182179307A407B50708F584
:102DA000209368013093690140936A0150936B014D
:102DB0009501A0E1B7E20E94653EA70196010E943D
:102DC000273E30936F0120936E016A897B898B8D3A
:102DD0009C8D0E94D10D90936D0180936C0181E0D8
:102DE00001C080E0409168015091690160916A01E1
:102DF00070916B01CC88DD88EE88FF884C155D05ED
:102E00006E057F0530F5C0926801D0926901E092AD
:102E10006A01F0926B016F817885888999890E9497
:102E2000D10D90936D0180936C019801A0E1B7E200
:102E30000E94653E209128013091290140E050E038
:102E40000E94273E205F384D30936F0120936E0122
:102E500003C0882309F487C3C0901F01D0902001CC
:102E6000E12CF12C9301A0E1B7E20E94653EA7019D
:102E700096010E94273E30937101209370019201C8
:102E8000A0E1B7E20E94653EA70196010E94273E9D
:102E9000309373012093720146CF01E660167104EE
:102EA00008F06EC011EDA11617E0B10608F468C075
:102EB00085E08093250182E180932401C50186503D
:102EC0009F4FCB8CDC8C8C159D0520F483E1809387
:102ED000240116C000911F0110912001B5018B8DB6
:102EE0009C8D0E94D10D9C01D8010E94653E9501E8
:102EF00040E050E00E94273E30936D0120936C012A
:102F00000B810770822D806480937C001BE0CC24B1
:102F1000C394D12CEE24EA94F3E0FF2EA89561E04F
:102F20008E8150D52B8524B986B18023E9F33E8567
:102F300034B980917A00806480937A0080917A001D
:102F400086FDFCCF8091780090917900D701A81B75
:102F5000B90BCA0EDB1E115009F7C601880F991F65
:102F6000880F991F69E070E00E94003E7093730122
:102F700060937201809177018F5F80937701D3CE48
:102F8000CB84C4B8E5B8882D0E94640D6C01822DF5
:102F90000E94680D9C878B870E94CC0D5C01098D77
:102FA0001A8D0C151D05B0F4B301C6010E94D10D98
:102FB0008C0120911F013091200140E050E060E839
:102FC00071EA83E09CE10E94273ED8010E947A3E8C
:102FD00095011EC0F4B81E8115B9882D0E94640D9C
:102FE0006C01822D0E94680D9C878B870E94CC0DFE
:102FF0008C01C6016C147D0410F486199709B80180
:103000000E94D10D9C01A4E6B0E00E94653E9801AB
:1030100040E050E00E94273E2F83388749875A8737
:10302000EB80E7B818B8FC80F4B8F5B8892D0E9499
:10303000640D8C01822D0E94680D998B888B882DE0
:103040000E94680D7C01003321E1120708F0BEC127
:1030500035B8892D0E94640D5C0134B8892D0E9419
:10306000640DAC0115B881E04D8F5E8F0E94300D6C
:1030700035B8892D0E94640D4D8D5E8D40345640CB
:1030800008F05BC08133914108F457C0C8018A56EB
:103090009F4FA816B90608F050C086E0809325011E
:1030A00080915B018F5F80935B01B701888999896B
:1030B0000E94D10D9093510180935001B701C80136
:1030C0000E94D10D909357018093560114B815B802
:1030D000CB80C8B881E00E94300D34B8892D0E94A1
:1030E000640D853F910508F04CC2DC80D4B8822D78
:1030F0000E94640D813D934008F443C2892D0E94D3
:10310000680D8D3D924008F43CC234B8892D0E9470
:10311000640D8D3D924008F434C235B881E00E94C0
:10312000300D15B8892D0E94640D853F910508F07A
:1031300028C287E08093250124C2EB80E7B8FC8099
:10314000F4B8F5B881E00E94300D0D8504B905B9D9
:10315000892D0E94640D5C010E94CC0D998B888B97
:10316000822D0E94680D9D838C830E94CC0D8C0162
:10317000882D0E94680D7C010E3F29E0120708F49B
:10318000B8C084E0809325018CE080932401888975
:1031900099896816790620F45C01A618B70802C060
:1031A000A888B988209128013091290140E050E099
:1031B00060E871EA83E09CE10E94273ED5010E940D
:1031C0007A3E980140E050E00E94273E80915B01EA
:1031D000882369F080914C0190914D01A0914E019E
:1031E000B0914F0182179307A407B50728F52093E4
:1031F0004C0130934D0140934E0150934F01B70164
:103200008C819D810E94D10D90935101809350013A
:1032100028893989A0E1B7E20E94653E2091280102
:103220003091290140E050E00E94273E3093530145
:103230002093520181E001C080E040914C01509107
:103240004D0160914E0170914F01EF80F884098526
:103250001A854E155F056007710728F5E0924C014D
:10326000F0924D0100934E0110934F01B6018B85F2
:103270009C850E94D10D909351018093500196013D
:10328000A0E1B7E20E94653E20911F01309120012C
:1032900040E050E00E94273E205F384D30935301BC
:1032A0002093520103C0882309F46CC19301A0E16B
:1032B000B7E20E94653E20911F013091200140E05D
:1032C00050E00E94273E3093550120935401920113
:1032D000A0E1B7E20E94653E2091280130912901CA
:1032E00040E050E00E94273E309357012093560162
:1032F00048C101E66016710408F068C0C888D98822
:1033000009E4C0160DE0D00608F460C085E08093A3
:10331000250182E080932401C70186509F4F8A15C2
:103320009B0520F483E08093240117C000912801BD
:1033300010912901B701C5010E94D10D9C01D8014E
:103340000E94653EC888D988960140E050E00E94FE
:10335000273E309351012093500109810770822D3F
:10336000806480937C001BE0EE24E394F12CA8950C
:1033700060E08E8127D3DD84D4B8D5B886B18023B0
:10338000E9F734B880917A00806480937A00809164
:103390007A0086FDFCCF8091780090917900E80E4C
:1033A000F91E115021F7C701880F991F880F991F27
:1033B00069E070E00E94003E7093570160935601EF
:1033C00080915B018F5F80935B01DBC017B818B8F9
:1033D00014B815B817B807EC601601E0700608F4C9
:1033E000B4C018B81F8514B918EC0981CB800C291A
:1033F00007B981E00E94300DDB80D7B8892D0E948B
:10340000680D429710F0115099F7EF84E4B8E5B8D1
:1034100061E08E81D7D2892D0E94640D6C01F88CF9
:10342000F4B815B8098107B908B960E08E81CAD22D
:10343000882D0E94640D0E94CC0D5C011E8514B97C
:10344000882D0E94680D8C01892D0E94640DB801A1
:103450000E94D10D8C01882D0E94680D7C01892D60
:103460000E94640DB7010E94D10D980128533F4F6F
:103470002817390708F46CC018B8EB80E7B834B8DF
:1034800035B861E08E819ED2882D0E94680D7C0146
:10349000892D0E94640DB7010E94D10D7C0108178F
:1034A000190748F40F8504B905B9892D0E94640DE8
:1034B000560187010EC0C88CC4B815B8D980D7B8DA
:1034C000D8B860E08E817ED2882D0E94640D0E9463
:1034D000CC0D98012759310929383141B0F58017B1
:1034E000910798F5C50143E0969587954A95E1F7D0
:1034F000893C910510F088EC90E08A0D9B1D8017A7
:10350000910718F5C80164E670E00E94003E6A1554
:103510007B05D8F480912501833018F483E08093F3
:10352000250120912301822F90E0FC01E756FE4FF8
:1035300090828682880F991FFC01EB55FE4F118304
:1035400000832F5F2093230103C0682D892D28D08D
:1035500017B818B814B815B88EE20E941B0A6E96F8
:10356000E2E10C942B3F909177019F5F909377015C
:10357000882371F3209274018092750190927601F4
:10358000E7CF81E090915B019F5F90935B0188237F
:10359000F9F2209258019092590180925A01D8CFA5
:1035A000A0E0B0E0E6EDFAE10C940F3FA895062FFD
:1035B00010E0F801E75AFD4FB49033969491482FEC
:1035C00050E0FA01E75AFD4FD4913396C4917091BF
:1035D000770120915B0130E0270F311D232B09F08B
:1035E000ECC1A89520912B0130912C01220F331FA3
:1035F000220F331F30933D0120933C0120917C0129
:1036000030917D01220F331F220F331F30933B0176
:1036100020933A012EEB2093380170912301F9E9B0
:10362000EF2EF1E0FF2EAFE9B1E0F701400F511F9F
:103630002E2F2E19271748F411912D9130E0210FCC
:10364000311D24173507A1F74EC0662E782E18B805
:1036500097B9D4B9D5B9B8E1FB2EC12CD12C862DA0
:103660000E94640D982E892E872D0E94680D8C0172
:103670008C199D0997FF03C0919581959109039736
:1036800034F0A895FA946801F110E9CF2CC0DD0F51
:1036900015B8D4B9872D0E94640D8135910518F5B0
:1036A000D5B9872D0E94640D6C01C7B9C8B915B88A
:1036B000B4B8A8E1AA2E412C512C872D0E94640D8C
:1036C0007C01862D0E94680DEC018419950997FFF5
:1036D00003C09195819591090397CCF0A895AA9480
:1036E0002E01A110EACF80912B0190912C01909393
:1036F0003D0180933C0180917C0190917D019093EC
:103700003B0180933A0187E38093380156C1BB0C9B
:10371000B4B8862D0E94640D5C01003C84E4180757
:1037200030F425E8C21621E0D206E8F605C080EBA9
:10373000C8168DE4D806B8F6C43A22E0D20708F0DD
:103740006CC088E9A816B10470F2C6010E94CC0DC5
:10375000AC019601A8E9B7EB0E94653E9A0140E0F2
:1037600050E00E94273E19012A01C5010E94CC0D9C
:103770009C01A8E9B7EB0E94653E850120E030E09E
:10378000A90198010E94273E88E7C8168FE0D80655
:1037900080F4D201C101F2E0880F991FAA1FBB1F5C
:1037A000FA95D1F7BC01CD01620F731F841F951FDD
:1037B00014C088E7A8168FE0B806B0F4DA01C90192
:1037C000E2E0880F991FAA1FBB1FEA95D1F7BC0141
:1037D000CD01620D731D841D951D25E030E040E094
:1037E00050E00E94273E0CC0DA01C901820D931DF2
:1037F000A41DB51D9C01AD0156954795379527959C
:10380000A4E6B0E00E947A3E4B015C012CEA820EF5
:103810002DE0921EA11CB11C78C0692D782D0617D1
:10382000170708F4B8016E01CE15DF0508F467012B
:103830007B016017710708F478010091280110914D
:103840002901C7010E94D10D9C01D8010E94653E4B
:103850004B015C01C7010E94CC0D9C0140E050E08F
:10386000C501B4010E94273E49015A018601CC15C9
:10387000DD0508F48E01C0911F01D0912001B8012F
:10388000C6010E94D10D9C01DE010E94653E980197
:1038900040E050E00E94273E88E7E8168FE0F806F7
:1038A00080F4D501C40162E0880F991FAA1FBB1FD5
:1038B0006A95D1F7BC01CD01620F731F841F951F5C
:1038C00013C008378FE01807C0F4DA01C90132E0ED
:1038D000880F991FAA1FBB1F3A95D1F7BC01CD01D4
:1038E000680D791D8A1D9B1D25E030E040E050E009
:1038F0000E94273E49015A0108C0820E931EA41E51
:10390000B51EB694A794979487941091250114300E
:1039100008F0E9CE7A94670C262D30E0E901CE5903
:10392000DE4F8881220F331F220F331FF901EE541F
:10393000FE4F8823D9F1C080D180E280F380A501B9
:1039400094012C193D094E095F0957FF07C0509596
:103950004095309521953F4F4F4F5F4FAAE0B0E023
:103960000E947A3E24E6C20ED11CE11CF11CA70184
:103970009601280D391D4A1D5B1D0E94273E232BF1
:10398000242B252B09F0AFCE133019F081E0809362
:10399000250182E0888380917E01E82FF0E0EB59D9
:1039A000FE4F60828F5F80937E019DCE80829182E8
:1039B000A282B38281E0888396CECDB7DEB7E2E102
:1039C0000C942B3FCF93C82FC09595B160FF02C0D8
:1039D000982B01C09C2395B994B1892B84B982E0BE
:1039E0000E94300D84B18C2384B985B18C2385B9B4
:1039F000CF910895AF92BF92DF92EF92FF920F9313
:103A00001F93CF93DF931AE08FE3D82E09E017B806
:103A100018B815B8D4B880E00E94640D7C0181E02C
:103A20000E94680DEC0182E00E94680D9C0180916B
:103A30002501893079F417B814B8F0920601E092A4
:103A40000501D0930801C093070130930A01209328
:103A500009015CC084E0E816F10440F4C430D105EB
:103A600068F42430310538F391E00CC091E088EE21
:103A7000E81683E0F80618F090E001C091E0C83E37
:103A8000D34008F49260283E334008F4946097B91C
:103A9000C0E0D0E0A89580E00E945C0D5C0181E070
:103AA0000E94680D7C0182E00E94680D24E1A2164C
:103AB00025E0B20608F4389A24E1E21625E0F20681
:103AC00008F4399A843125E0920708F43A9A26E0FE
:103AD000A216B10430F426E0E216F10410F40697C1
:103AE00038F02196C43F81E0D807A1F60093250164
:103AF000E12CF12CEC16FD0631F00E941E0D2FEF8B
:103B0000E21AF20AF7CF115009F081CFDF91CF917D
:103B10001F910F91FF90EF90DF90BF90AF900895AD
:103B2000CF92DF92EF92FF92CF9320918301309159
:103B300084014091850150918601C09195018AE0F0
:103B4000C82ED12CE12CF12C8C2FCF5F213A96E896
:103B5000390791E04907510538F0CA01B901A701B9
:103B600096010E94273EF0CF80939501A0913C01E1
:103B7000B0913D010E947A3E28E833E140E050E0F8
:103B80000E94273E20938301309384014093850156
:103B900050938601CF91FF90EF90DF90CF900895E2
:103BA000A4E0B0E0E6EDFDE10C94153F2FEF260F09
:103BB000982F990F980F920F90935D01E82FF0E0E6
:103BC000E75AFD4F9490262F30E0F901E75AFD4F58
:103BD000F490F901E45AFD4FD49090912501913071
:103BE00009F4ABC2909123014FE951E009E911E0DA
:103BF000DA012A2F241B2917A0F42D9126130EC0B9
:103C00009D0127503109F9012081281307C0F801CF
:103C1000248535852C3D354008F48FC20E5F1F4F3B
:103C2000E8CF162F082F1092900110928F0181EF8C
:103C30008093950110928301109284011092850166
:103C400010928601D7DE18B8D7B8F4B8F5B8802F2F
:103C50000E94680D5C01812F0E94680DA81AB90AA4
:103C600014B810925F0110925E0180915E019091F4
:103C70005F01843F914008F0AEC095B894B80E94AF
:103C8000180D14B815B80E941F0DA895802F0E941A
:103C9000680D7C01EA18FB0880915E0190915F013C
:103CA0008E37910528F02BE4E216F1040CF493C052
:103CB0007DE2E71671E0F70654F480915E01909181
:103CC0005F01019690935F0180935E01CECFC701A3
:103CD00020915E0130915F01232B09F0A1C1F5E134
:103CE000EF16F5E0FF060CF49BC184DE15B887E003
:103CF00087B918B8F92CFF0CF4B880E480937B00E6
:103D000084E580BF802F806480937C0087E180936E
:103D10007A000E94220D10925F0110925E011092B3
:103D20008000109285001092840087E286BB81E2B9
:103D300080936F0081E080938001F5B89091250118
:103D400080938100953009F04BC081E090E0002E17
:103D500001C0880F0A94EAF78095877087B9F894B4
:103D600083B7817F83BF80918001882389F083B7E7
:103D7000816083BF7894889583B78E7F83BFF894E2
:103D8000A89580915E0190915F0180389C4059F721
:103D9000789410928100E0908600F0908700109255
:103DA0006F0087E980937A0014B815B8802F0E94BD
:103DB000680D2091400130914101821B930B0B96BD
:103DC000909398018093970180915E0190915F019B
:103DD0008034964038F017B818B814B815B8ADC18B
:103DE000D7B8BDCF80915E0190915F0190938E0115
:103DF00080938D01F0928C01E0928B0184EF80938F
:103E0000950180915E0190915F0182349105C8F027
:103E100060918B0170918C0180918D0190918E0148
:103E200024E630E040E050E00E94273E20938B01E2
:103E300030938C0140938D0150938E0186EF8093D7
:103E40009501A0918101B091820120918B01309167
:103E50008C0140918D0150918E010E947A3E20E4A8
:103E600036E040E050E00E94273E20938B013093E3
:103E70008C0140938D0150938E01209383013093E8
:103E8000840140938501509386014ADE809195011B
:103E9000843F09F070C0C0908301D0908401E0900D
:103EA0008501F090860120EAC2162FE0D206E104D7
:103EB000F104C0F4A70196012C543F4F4F4F5F4FC0
:103EC00060EA7FE080E090E00E94273EC20ED31EB1
:103ED000E41EF51EC0928301D0928401E092850118
:103EE000F0928601C0908301D0908401E09085011A
:103EF000F0908601C114D10471E0E706F10428F4C2
:103F0000D092C301C092C20106C081E090E09093BC
:103F1000C3018093C20180915D0190E088579C4F5E
:103F20000E94A23F90E0A0E0B0E08C159D05AE0598
:103F3000BF0568F4C81AD90AEA0AFB0AC0928301CD
:103F4000D0928401E0928501F092860114C0E4E1F0
:103F5000CE0ED11CE11CF11CC816D906EA06FB06E0
:103F600010F40E94AA1310928301109284011092FF
:103F700085011092860194B880918301909184010B
:103F8000A0918501B09186014997A105B10508F47A
:103F900022CFC12CD12C80912301882329F080913C
:103FA0002501853009F017CF88E0809325018091A5
:103FB0009501909196019817C4F089130CCF8090C9
:103FC000830190908401A0908501B090860140917A
:103FD0008701509188016091890170918A0148158B
:103FE00059056A057B0508F0F6CE40918301509192
:103FF00084016091850170918601409387015093FF
:1040000088016093890170938A0180939601D09210
:104010009201C09291011093930100939401DBCE21
:10402000C12CD12C20915E0130915F012C153D05F2
:1040300060F00E94190D802F0E94680D8A199B095B
:10404000A8952FEFC21AD20AEDCF5701A81AB90AC4
:104050001A141B049CF479ECA716B1040CF0BBCE27
:1040600028EE33E0D5010E94743E97010F2C000C1E
:10407000440B550B0E94273E690102C0C12CD12C74
:1040800080915E0190915F010196A0E0B0E0809385
:104090008B0190938C01A0938D01B0938E01C70189
:1040A0008A0D9B1D96D020918B0130918C014091FF
:1040B0008D0150918E01DC010E947A3E60938B014C
:1040C00070938C0180938D0190938E016093830196
:1040D00070938401809385019093860187EF80938C
:1040E00095011EDD2091830130918401409185016D
:1040F000509186018BE693E029833A834B835C835E
:104100000E94A23FA8EEB3E0A81BB10987FDB395BA
:1041100029813A814B815C810E94843E24E630E013
:1041200040E050E00E94273E2093830130938401B9
:1041300040938501509386012ECF2496ECE00C9499
:10414000313F1F920F920FB60F9211248F939F93BE
:10415000B59904C080918001811109C0B59B10C040
:1041600080918600909187008A3F910548F4809164
:104170005E0190915F01019690935F0180935E01D3
:104180009F918F910F900FBE0F901F9018951F92C7
:104190000F920FB60F9211248F939F93109280016C
:1041A000B09B10C080918600909187008A3F910556
:1041B00048F480915E0190915F01019690935F01B8
:1041C00080935E019F918F910F900FBE0F901F9073
:1041D00018950F9221E08C32920710F48CE291E056
:1041E0008C52914069E170E00E94003E99E16B328F
:1041F00010F0982F6BE2981BE9E0F3E0E60FF11D59
:10420000E60FF11D9F93CF010E94A23F482F3196E8
:10421000CF010E94A23F582F3196CF010E94A23FAA
:10422000282F3196CF010E94A23F382F6F91421B59
:10423000530B649FC001659F900D11240C9669E19A
:1042400070E00E94003E620F731FCB010F90089533
:10425000A0E0B0E0EEE2F1E20C94153F88E893E1D3
:1042600090932C0180932B0190933D0180933C010E
:104270008EEB8093380118B880E187B90E94270D32
:1042800017B884E00E94640DAC018B5C9840833FBA
:104290009140A0F481E08093470120913C0130914E
:1042A0003D01AFEBB9E00E94653E9A0140E050E06D
:1042B0000E94273E30932C0120932B0180912B01EB
:1042C00090912C0190933D0180933C018EE00E94DF
:1042D000680D8EE00E94640D90934101809340012F
:1042E0000E94B20E87DB18B8C1E0C7B985E185B975
:1042F000C4B980E00E94640D8C0182E0D82ED7B84A
:10430000D4E0D4B981E00E94640D080F191FD7B919
:1043100090E1C92EC4B882E00E94640D080F191FF5
:1043200015B8C8B9C7B9C4B980E00E94640D0E942D
:10433000CC0D7C01D8B8D7B8D4B981E00E94640D07
:104340000E94CC0DE80EF91ED8B9D7B9C4B882E0E6
:104350000E94640D0E94CC0DE701C80FD91F17B849
:1043600018B814B840913C0150913D016A01CC0C41
:10437000DD1CC40ED51EC01AD10ACC1ADD0AE12CF0
:10438000F12C9801A0E9BAE10E94653EA7019601CF
:104390000E94273E49015A0130934601209345016E
:1043A0009E01A0E9BAE10E94653EA70196010E9424
:1043B000273E30933F0120933E012057354E3093E6
:1043C00029012093280180E7881A85EE980A9092A7
:1043D000200180921F0187E380933801CDB7DEB7BB
:1043E000ECE00C94313F0F931F93CF93DF93C82FD2
:1043F000162FD42F0E943C0A85E391E00E94A30A65
:10440000F5D1612F8C2F0E940836C1E08091C60142
:104410009091C701A091C801B091C901892B8A2B45
:104420008B2B09F0C0E08091020187FD02C0C11111
:1044300004C081E391E00E94A30A812F0E943C0AFC
:10444000C11132C00E943F0A809165010E94480B51
:10445000DD2309F47CC080914801813128F490E08B
:1044600084579C4F0E94A30A80E00E947C0AC111DD
:1044700020C06091C6017091C7018091C8019091E0
:10448000C90103E028E447EF0E94D00B84E491E0E7
:104490000E94A30A81EA93E00E94AA3F23E046E437
:1044A00064EF0E94B90C1FC0D111D5CF80E00E94EB
:1044B0007C0A809165010E94480B809102018E3F29
:1044C00094F482E691E00E94A30A60910B0170913E
:1044D0000C0180910D0190910E0103E028E44091C0
:1044E00002010E94D00B8091BE019091BF01A0916A
:1044F000C001B091C101892B8A2B8B2BF1F080E098
:104500000E947C0A6091BE017091BF018091C00140
:104510009091C10104E028E440E00E94D00B8FE3B9
:1045200091E00E94A30A23E040E26FEF8091C40172
:104530009091C5010E94B90C07C080E00E94590A01
:1045400080914B01811107C00E94530A04C080E092
:104550000E947C0A8ECFDF91CF911F910F91089519
:10456000EF92FF920F93CF93DF93D82F0E946108B1
:10457000809193010E943C0A8EE791E00E94A30A79
:1045800017D560919301809194016BD39093900122
:1045900080938F01C1E08A3F9F4F08F0C0E0E09018
:1045A0009101F0909201CC2321F086E391E00E94EA
:1045B000A30A809194010E943C0ADD2359F0909156
:1045C000480181E1891B0E94420A81E890E00E9433
:1045D000A30A02C00E94530A0E94670860918701E3
:1045E000709188018091890190918A0104E026E40C
:1045F000409196010E94D00BCC2369F08DE691E0AA
:104600000E94A30A22E044E06EEF80918F01909116
:1046100090010E94B90C0E94530A0E946E08EF2874
:1046200069F086E691E00E94A30A22E045E26FEF7E
:1046300080919101909192010E94B90C0E94530ABD
:10464000DF91CF910F91FF90EF9008958F7021F43B
:104650000E9475080C94031408958F3021F49091F2
:104660004201913011F08F5F089580E00895CF935B
:104670008CE890E00E94EE2FC0E00E945F0F60E0A7
:1046800082E00E94D01A62E080E00E94D01A0E946C
:10469000610880917E01882329F041E062E080E09A
:1046A000A2DE12C08CE890E00E94A30A86E993E0A3
:1046B0000E94A30A0E9467088FE30E941B0A80E001
:1046C0000E94590A0E94530A8C2FC0DF88EE93E0A3
:1046D0000E94230E811109C080911E01843028F4AC
:1046E0008C2FBBDFC82F8A3F40F20E949A08CF91DF
:1046F00008950F931F93CF93DF93C0E0D8E012EF9C
:1047000001E10E945F0F60E082E04ADAD093250168
:1047100080919501843FE1F480918301909184011F
:10472000A0918501B091860184369105A105B1055E
:1047300078F440E060E082E00E948533609383017A
:104740007093840180938501909386011093950165
:1047500080919501823FACF0809396018091830116
:1047600090918401A0918501B09186018093870189
:1047700090938801A0938901B0938A0181E0F0DED3
:104780001CC00E94610885E890E00E94A30A809105
:104790004801902F981B892F0E94420A81E890E0DF
:1047A0000E94A30A0E9467088FE30E941B0A0E94CE
:1047B000530A0E946E080E94530A8C2F47DF88EE2E
:1047C00093E00E94230E81110AC080911E01843063
:1047D00030F48C2F42DFC82F8A3F08F492CF0E941A
:1047E0009A08DF91CF911F910F910895A8E1B0E051
:1047F000ECEFF3E20C940F3F82E080930201809192
:104800002501813009F029C280917E01813009F0B3
:1048100024C220916501298B34E0239FF0011124EB
:10482000EE54FE4F408051806280738049E0441610
:1048300042E554066104710408F00FC25B8A4A8A9B
:1048400010E08989123028F40E943E0BB82EA92E60
:1048500003C00E943E0B5C01EA2DF0E0E45AFD4FDC
:1048600024918B2D90E0FC01E75AFD4FE49115B89F
:1048700018B850EF4516510461047104B0F410FDEE
:1048800014C020901F013090200130E9231A3AE132
:10489000330A41E050E00B2C02C0440F551F0A942C
:1048A000E2F7CA01822B87B906C0E4B927B9209084
:1048B0001F013090200104E18B2D288F0E94600D94
:1048C0004C018A2D0E94680D288D54E085169104B4
:1048D00010F4049710F0015079F780E480937B0086
:1048E00094E590BF8B2D806480937C0037E13093FA
:1048F0007A00E12CF12C1092800010928500109229
:10490000840087E286BB288F0E94220D012F017050
:10491000288D10FD05C081E88093810028B908C06A
:1049200028B90E942B0D80E286BB81E8809381002C
:1049300086B385FD0CC080FFFBCF41E046BBA89548
:1049400097012F5F3F4F7901203A310589F718B859
:104950001092810090E296BB2091860030918700F2
:10496000690140918400509185002417350738F47F
:1049700080FF05C051E056BB8FEFE81AF80A87E9BF
:1049800080937A0024E18B2D288F0E94600D4C01CA
:104990008A2D0E94680D288D34E08316910410F44E
:1049A000049710F0215079F78090450190904601CE
:1049B0004A895B89840E951E820C931C20912101EB
:1049C0003091220150E925165AE13506B0F481EE06
:1049D000C816D104E104F10438F4C60165E070E0C2
:1049E0000E94003E645101C069E128523109261B32
:1049F000310967FD339586E009C0C40168E57BE1B4
:104A00000E94003E87E0860F285D3F4F90E0A0E0C7
:104A1000B0E08C159D05AE05BF0528F4C81AD90A6B
:104A2000EA0AFB0A03C0C12CD12C7601002329F02D
:104A30009AE3C90ED11CE11CF11C40EAE416F10412
:104A400018F0C12CD12C76015BE0C516D104E1042D
:104A5000F10428F081E0C81AD108E108F10840917A
:104A60003C0150913D01A12CB12CA8EEB3E00E9475
:104A7000653E6C8B7D8B8E8B9F8B9101DA010E9442
:104A8000653EA50194010E94273E442755276C8965
:104A90007D898E899F890E94273EC9010E940A0F45
:104AA000FC01A5019401C701B6010E94E53D4B013F
:104AB0005C01CF01A0E0B0E074E0880F991FAA1F4D
:104AC000BB1F7A95D1F7BC01CD016B5F7F4F8F4F34
:104AD0009F4F2AE030E040E050E00E94273E44270C
:104AE0005527C501B4010E94273EE12FF0E0A1E067
:104AF000B0E0AC0FBD1F94E0199FA00DB11D1124B3
:104B00002D933D934D935C931397011116C084E14F
:104B1000C816D104E104F10480F03196EE0FFF1FB6
:104B2000EE0FFF1F81E090E08C0F9D1FE80FF91F33
:104B300020833183428353831F5FA8951F5F143006
:104B400008F47FCE18B884E00E94300D91E00D810A
:104B50001E812F81388549815A816B817C81401764
:104B600051076207730708F090E00D851E852F85B9
:104B7000388949855A856B857C85401751076207BE
:104B8000730710F483E001C082E0E92FF0E0EE0F3C
:104B9000FF1FEE0FFF1F21E030E02C0F3D1FE20F43
:104BA000F31FD90134E0839FA00DB11D11240D9195
:104BB0001D912D913C914081518162817381041737
:104BC00015072607370708F0892FE1E0F0E0EC0F22
:104BD000FD1F44E0849FE00DF11D112440815181AF
:104BE0006281738140930B0150930C0160930D011E
:104BF00070930E0180FD0AC080EF481651046104D5
:104C0000710420F48BEF8093020117C08CEF809326
:104C10000201CB01BA016B5F7F4F8F4F9F4F2AE09C
:104C200030E040E050E00E94273E20930B0130939B
:104C30000C0140930D0150930E0180910B01909156
:104C40000C01A0910D01B0910E01892B8A2B8B2BA9
:104C500011F41092020117B814B86896E2E10C94AE
:104C60002B3FAEE1B0E0E7E3F6E20C940F3F662E97
:104C7000B82E860F898320912501283059F520917F
:104C80008701309188014091890150918A0157FD37
:104C900015C01091960109C0CA01B9012AE0312D51
:104CA000412D512D0E94273E1F5F173FACF391F419
:104CB000243160E036074105510518F48FEF9FEF6E
:104CC00044C1173F39F480E028178DE738074105C4
:104CD000410510F020E03DE72C8B3D8B27EDA22E07
:104CE000ECE5F2E0E60DF11D859180608E87ECE544
:104CF000F2E0EB0DF11D859180608F87E9E5F2E030
:104D0000E60DF11D7590E9E5F2E0EB0DF11DC590A2
:104D100090EC692AB92A81E0E82EF12C012D112DA1
:104D20008E831F82188619861A861B861C861D860E
:104D3000188E198E1B8E1A8E0E94FA1C80E088B97C
:104D400060927C000E94230D3F8537B975B874B816
:104D500055E05A95F1F7000014B815B8DD243E85EA
:104D600037B975B874B860927C00A895A0927A00A3
:104D700080917A0086FDFCCF2090780030907900F9
:104D8000B0927C004C2DE5D02091780030917900D4
:104D9000288B398B3F8537B9C5B8C4B8A895B09270
:104DA0007C00A0927A0080917A0086FDFCCF609111
:104DB00078007091790060927C00472DCAD04091B4
:104DC00078005091790014B8CB01820D931DE80E44
:104DD000F91E011D111DEA82FB820C831D83888947
:104DE0009989840F951F2E813F8168857985280FC9
:104DF000391F611D711D2E833F836887798722E3E8
:104E00002417150650F075B874B80E942D0D14B80B
:104E100015B8888D8395888F07C0483E73E0570783
:104E200018F08A8D83958A8F8889998928171906A1
:104E300060F03E8537B9C5B8C4B80E942D0D14B8CE
:104E400015B8898D8395898F07C0883E73E09707D1
:104E500018F08B8D83958B8FD3945D2D5F3F49F038
:104E60005F3731F45C2D550FC50E572D550F750E5C
:104E700076CF4090450150904601440C551C92015C
:104E8000E4E0240D351DEA95E1F729015701680199
:104E90006E807F8088849984209125012830C1F418
:104EA0006C897D89812D912D6550704080409040A6
:104EB0009B01AC010E94E53D9B01AC0160E779E7F5
:104EC00086E190E00E94273E621A730A840A950ADE
:104ED000A614B704C804D90428F46A187B088C08FF
:104EE0009D0803C0662477244301B20180E090E06E
:104EF0009301A4010E94E53D9501A6010E94273E71
:104F000087E693E07981870F911D0E94A23F682E6A
:104F1000C90160E170E00E94003E260F371FC90101
:104F20006816190618F4861991090FC08C5E9F4FF8
:104F30008615910540F48C899D89843981E1980713
:104F400010F00E94AA13812D912D6E96E2E10C942F
:104F50002B3F109281001092800010926F001092EF
:104F60008B0010928A0057E056BB5FEF509385008C
:104F70005093840055E050937B0057EB50937A0098
:104F800051E0509381005FE45A95F1F70000000072
:104F900045B944B95BE05A95F1F714B815B81092C9
:104FA000810080917A0084FFFCCF80937A0008957D
:104FB0008F929F92AF92BF92EF92FF920F931F93A7
:104FC000CF93DF9300D000D0CDB7DEB780919101B1
:104FD00090919201892B09F0B6C0E0919301F0E025
:104FE000E45AFD4F1491E0919401F0E0E75AFD4F2F
:104FF000F4900E94FA1C18B815B817B9F4B880914B
:1050000094010E94680D8C01209196018CE0820F22
:10501000843008F098C08091870190918801A09118
:105020008901B0918A013FE0E32EE20E4AE0842E2E
:10503000912CA12CB12CBC01CD016B5F7F4F8F4F08
:105040009F4FA50194010E94273EDA01C901E39414
:1050500067E0E612F0CF293863E1360741055105D4
:1050600008F071C02530310508F46DC0F5B8F4B80A
:10507000E12CF12CE216F30670F429833A834B837A
:105080005C830E94290D82E0E80EF11C5C814B815B
:105090003A812981EFCF14B815B8A89585E080939F
:1050A00038018091940129833A834B835C830E9469
:1050B000680D29813A814B815C810817190720F41A
:1050C0007C01E01AF10A02C0E12CF12CA12CB12CD8
:1050D000A216B30670F429833A834B835C830E9443
:1050E000290D6FEFA61AB60A5C814B813A8129819E
:1050F000EFCF809194010E94680D27E3209338013F
:10510000A8950817190718F4801B910B02C080E0BE
:1051100090E08E159F0588F49701281B390B69F0E4
:10512000A4EFB1E00E94653E970140E050E00E948C
:10513000273E30939201209391010E94FA1C17B8E8
:1051400018B814B815B80F900F900F900F90DF910A
:10515000CF911F910F91FF90EF90BF90AF909F90D4
:105160008F900895A5E0B0E0E8EBF8E20C940F3FD3
:1051700081E592E033D720EF2B8354980E941E0DD7
:1051800014BC16BC1092120110921301109214015B
:105190001092150131E035BB30936E001092800003
:1051A00085E294EF90938B0080938A00E1E0F0E039
:1051B000F0938900E093880010928500109284009B
:1051C00083B5816083BDF6E0F6BBF0936F00789401
:1051D00024E02093810012E31A820E94170DA89503
:1051E0004F9902C031E03A8385B5811127C015BCC3
:1051F00086B5809312010E946E080E94530A0E9495
:1052000075080E94530A0E94830A86E60E941B0AC0
:105210000E94870A6091120170911301809114011C
:105220009091150147E00E94CE0C54988091810026
:10523000882339F08FE30E941B0A03C0115069F6DE
:10524000D6CF1092810010926F0020911201309100
:1052500013014091140150911501DA01C901019720
:10526000A109B109893D9146A105B10508F0FCC02D
:10527000AAE0B0E00E947A3EDC01CB014096A11D7D
:10528000B11D24E0B695A795979587952A95D1F7F6
:10529000BC01660F771F7093790160937801549871
:1052A0000E941E0D16BC1092120110921301109252
:1052B00014011092150181E085BB80936E0010925D
:1052C0007B0110927A0194E09BBB8091680084601E
:1052D00080936800789480916D00806180936D0068
:1052E00019820E94170DA8954F9902C0E1E0EA8348
:1052F00080916D0084FF05C0F981FF5FF983FA3F5B
:1053000081F715BC80916D008F7E80936D00809138
:1053100068008B7F8093680086B5809312010E949D
:105320006E0884E50E941B0A0E94870A60911201A0
:1053300070911301809114019091150120917801D1
:10534000309179013D832C8324ED30E340E050E03F
:105350000E948A3EEC81FD815F01C12CD12CE12CA1
:10536000F12C00E010E00E94B33E49013A011B011C
:105370002C012C813D812038310530F007E023E7F6
:1053800045EFB401C30116C084E6A82EB12CC12C90
:10539000D12CE12CF12C00E010E09401C2010E941C
:1053A000B33EF22FE42F07E023E747EF6F2F732F71
:1053B0008E2F952F0E94D00B39813A3F21F48FE335
:1053C0000E941B0A51C09401A301B101C2012C39F2
:1053D0003E4C43405105610571058105910509F079
:1053E00008F442C00E94750886E60E941B0A0E94CB
:1053F000870A9401A301B101C20154016301710143
:10540000820121153A4C4A495B43610571058105CA
:10541000910589F080F020E030E04AE85DE568E73A
:1054200075E483E691E00E94B33EF22FE42F07E09B
:1054300028E44AEF0FC020E030E846EC54EA6EE77B
:105440007DE883E090E00E94B33EF22FE42F07E076
:1054500028E44CEF6F2F732F8E2F952F0E94D00BC7
:105460008AE70E941B0A549810926E0080ED97E024
:105470000E94230E2A81820F49F480911E018330FD
:1054800028F43B8131503B83311177CE2596E2E100
:105490000C942B3F1F920F920FB60F9211248F93F3
:1054A0009F93AF93BF9378948091120190911301D1
:1054B000A0911401B09115019F5FAF4FBF4F809332
:1054C000120190931301A0931401B0931501BF91A1
:1054D000AF919F918F910F900FBE0F901F901895D5
:1054E0001F920F920FB60F9211248F9386E085BD05
:1054F0008F910F900FBE0F901F9018951F920F92D3
:105500000FB60F921124A8951092810015BC0F9030
:105510000FBE0F901F9018951F920F920FB60F920B
:1055200011242F933F938F939F9380917A019091B1
:105530007B01892B11F481E085BD20917A013091A6
:105540007B0180917801909179012817390730F01B
:1055500015BC80916D008F7E80936D0080917A01E3
:1055600090917B01019690937B0180937A019F91AA
:105570008F913F912F910F900FBE0F901F90189514
:105580008E3008F08E50811103C08CE592E040C04F
:10559000813019F481E592E03BC0823019F481E258
:1055A00092E036C0833019F486E192E031C0843055
:1055B00019F487E990E02CC0853019F48CE890E06C
:1055C00027C0863019F485E890E022C0873019F4AE
:1055D00086E092E01DC0883019F48DEE91E018C08D
:1055E000893019F487E492E013C08A3019F48BE013
:1055F00091E00EC08B3019F481E091E009C08C304D
:1056000019F487E392E004C08D3021F48DE292E03A
:105610000E94A30A0C94530A08950F93CF9387E92D
:1056200090E0DCD4C0E01092250160E082E0F2D48A
:10563000809125018830C1F50E94670883E40E94AB
:105640001B0A0E94870A60918701709188018091EE
:10565000890190918A0103E026E4409196010E941D
:10566000D00B0E94530A6091930180919401F9DA62
:105670009093900180938F010E946E088EE691E0D6
:105680000E94A30A80918F01909190018A3F2FEF91
:10569000920730F422E044E06EEF0E94B90C08C09B
:1056A0008FE30E941B0A04C00E94830A0E946E08B6
:1056B0000E94530A8C2F0E94262388EE93E00E94BA
:1056C000230E81110BC080911E01843038F48C2F81
:1056D0000E942D23C82F8A3F08F4A5CFCF910F91A8
:1056E00008951F93CF93DF9387E492E077D4C0E0CF
:1056F000D0E01AE00E94830A88E591E00E94A30AA4
:1057000083E00E94640D63E09C01129FC001139F1F
:10571000900D11240E94C40C8C2F0E94262388EE29
:1057200093E00E94230E90911E01811102C09923E3
:1057300061F0C0E0963080F48F3510F0DF5F02C07A
:10574000882319F0D53010F007C0D0E08C2F0E94CC
:105750002D23C82F803F70F2DF91CF911F910895C4
:10576000A5E0B0E0E6EBFBE20C940F3F81E292E0B3
:1057700035D480E18093800010926F0081E090E04A
:10578000909389008093880010928B0010928A0079
:1057900083E086BB1092820088E08093810015B878
:1057A00081E184B918B881E087B9229A89E08093B1
:1057B0008100312C1B82FAE02F2E21E02C83812CDA
:1057C000912C5401839431E13D83832D90E00A961E
:1057D0006EE170E00E94143E162F062F4B81641775
:1057E00089F00E94610881E292E00E94A30A712C74
:1057F000701628F48EE20E941B0A7394F9CF0E945F
:10580000530A1B835D815231B8F0C701B601A5016F
:1058100094010E94273E6B017C018C81622D0E94C5
:10582000F43DA92FB0E0A50194010E947A3EC60E76
:10583000D71EE81EF91E0CC08C81622D0E94F43D1B
:10584000A92FB0E0A50194010E947A3E6B017C0172
:105850000E9467088C81821103C09D81923138F4C7
:10586000ED811A821982E63140F082E507C021E01D
:1058700030E03A8329838CE301C08EE30E941B0A47
:105880000E943F0A4D81C701B6010E94CE0CC7019C
:10589000B6017C5D8B409F4FA7019601220F331FFD
:1058A000441F551F0E94273ECA014F3F510539F042
:1058B00030F08DE08093810080E094E01FC04034A0
:1058C000510530F08CE08093810080E091E016C0BB
:1058D0004830510530F08BE08093810080E490E007
:1058E0000DC0892B31F09AE09093810088E090E020
:1058F00005C0E9E0E093810081E090E02C01612C9B
:10590000712CCA01B901A30192010E94273E2150C6
:10591000310930938900209388008091880090910C
:105920008900892B31F421E030E030938900209305
:1059300088000E94530A0E946E0886E60E941B0A95
:105940000E943F0A009188001091890060E072E196
:105950008AE790E0A30192010E94273EA4E6B0E00E
:105960000E947A3E98012F5F3F4F40E050E00E9436
:10597000273E29013A01A4E6B0E0A70196010E9462
:105980007A3EA3019201261B370B480B590BCA0123
:10599000B90105E228E44EEF0E94D00B8AE70E948D
:1059A0001B0A0E94530A80ED97E00E94230E81118A
:1059B00005C080911E01811149C049C0883C58F042
:1059C000109281001092800017B814B82298259682
:1059D000E2E10C942B3F8135A0F149815A81452B9E
:1059E000E9F05D8151505D83C501B4012AE030E0EA
:1059F00040E050E00E94273E49015A01C701B6012C
:105A00000E94273ECA01B9012AE030E040E050E0A0
:105A10000E94273E6C833AE0232E44C08D8186315C
:105A2000B8F58F5F8D83863111F425E1222EAAE02F
:105A3000B0E0A50194010E947A3E4B015C011C82FA
:105A400031C08B3018F09C819F5F9C83312C8091FA
:105A50001E018B3008F0B4CF80911D0187FD03C07B
:105A6000EC818E0F04C08F5F820DFC818F0F90E060
:105A7000622D70E06F5F7F4F0E94143E8C83832DF8
:105A80000E942D23382E2FEE281708F09ECE98CF97
:105A90008AE0282E31E03C83812C912C54018394A0
:105AA00041E14D83312C91CEA4E0B0E0EAE5FDE286
:105AB0000C94143F86E192E091D283E280938000BF
:105AC00010926F008FEF90E090938B0080938A008C
:105AD00083E086BB1092820015B881E184B918B8C2
